:020000040000fa
:08000000020c040000000000e6
:020000040000fa
:10000800060d0000060d0000060d0000060d00009c
:10001800060d0000060d0000060d0000060d00008c
:10002800060d0000060d0000060d0000d60c0000ad
:10003800060d0000060d0000060d0000060d00006c
:10004800060d0000060d0000060d0000060d00005c
:10005800060d0000060d0000060d0000060d00004c
:10006800060d0000060d0000060d0000060d00003c
:10007800060d0000060d0000060d0000060d00002c
:10008800060d0000060d0000060d0000060d00001c
:10009800060d0000060d0000060d0000060d00000c
:1000a800060d0000060d0000060d0000060d0000fc
:1000b800060d0000060d0000060d0000060d0000ec
:1000c800060d0000060d0000060d0000060d0000dc
:1000d800060d0000060d0000060d0000060d0000cc
:1000e800060d0000060d0000060d0000060d0000bc
:1000f800060d0000060d0000060d0000060d0000ac
:10010800060d0000060d0000060d0000060d00009b
:10011800060d0000060d0000060d0000060d00008b
:10012800060d0000060d0000060d0000060d00007b
:10013800060d0000060d0000060d0000060d00006b
:10014800060d0000060d0000060d0000060d00005b
:10015800060d0000060d0000060d0000060d00004b
:10016800060d0000060d0000060d0000060d00003b
:10017800060d0000060d0000060d0000060d00002b
:10018800060d0000060d0000060d0000060d00001b
:10019800060d0000060d0000060d0000060d00000b
:1001a800060d0000060d0000060d0000060d0000fb
:1001b800060d0000060d0000060d0000060d0000eb
:1001c800060d0000060d0000060d0000060d0000db
:1001d800060d0000060d0000060d0000060d0000cb
:1001e800060d0000060d0000060d0000060d0000bb
:0801f800060d0000060d0000d9
:020000040000fa
:10020800060d0000060d0000060d0000060d00009a
:10021800060d0000060d0000060d0000060d00008a
:10022800060d0000060d0000060d0000d60c0000ab
:10023800060d0000060d0000060d0000060d00006a
:10024800060d0000060d0000060d0000060d00005a
:10025800060d0000060d0000060d0000060d00004a
:10026800060d0000060d0000060d0000060d00003a
:10027800060d0000060d0000060d0000060d00002a
:10028800060d0000060d0000060d0000060d00001a
:10029800060d0000060d0000060d0000060d00000a
:1002a800060d0000060d0000060d0000060d0000fa
:1002b800060d0000060d0000060d0000060d0000ea
:1002c800060d0000060d0000060d0000060d0000da
:1002d800060d0000060d0000060d0000060d0000ca
:1002e800060d0000060d0000060d0000060d0000ba
:1002f800060d0000060d0000060d0000060d0000aa
:10030800060d0000060d0000060d0000060d000099
:10031800060d0000060d0000060d0000060d000089
:10032800060d0000060d0000060d0000060d000079
:10033800060d0000060d0000060d0000060d000069
:10034800060d0000060d0000060d0000060d000059
:10035800060d0000060d0000060d0000060d000049
:10036800060d0000060d0000060d0000060d000039
:10037800060d0000060d0000060d0000060d000029
:10038800060d0000060d0000060d0000060d000019
:10039800060d0000060d0000060d0000060d000009
:1003a800060d0000060d0000060d0000060d0000f9
:1003b800060d0000060d0000060d0000060d0000e9
:1003c800060d0000060d0000060d0000060d0000d9
:1003d800060d0000060d0000060d0000060d0000c9
:1003e800060d0000060d0000060d0000060d0000b9
:0803f800060d0000060d0000d7
:020000040000fa
:1018000001000000afcb21000e7f22000e018800f6
:1018100000000000000020000000e0000200320094
:101820000001200020028800140007007900070052
:101830000000e00003003a006018230001002000cf
:10184000020037000000200001002000810f70001e
:101850000100320014000700000020000000e0003a
:10186000020032000000020000000000723002009e
:10187000000000000040da000000fe004440a90023
:10188000c00320000000e000030032000000200040
:10189000a00188004440a800000006008a1f7800cc
:1018a0008b1f7800000006009101880080047800fa
:1018b0000000eb001a003700e284440032a0b400bc
:1018c0009905ba00e284440032a0b4009906ba0037
:1018d000e284440032a0b4000006eb00476fde0053
:1018e000fd07b200636ce10003003a00ebff070064
:1018f0000000eb000a003700606ce10004003a00d1
:10190000005deb008b05e900fdff3e0004003700a1
:101910006168e100010032000086eb000b00070067
:1019200019c7ba001905ba000e04e00003003a0016
:101930000a00e000e0ff3a0000000600fe07b200e7
:101940009e0188008a047800f5ff3700395dba00ef
:101950008b05e9000c003200295dba008b05e90017
:10196000080032000c00e00003003a00e28444006a
:1019700032a0b400f5ff370019ddba008b05e9008d
:10198000faff3a008904e800e184440032a0b40080
:101990000000060000000000000000000000000041
:1019a0000000000000000000000000003600f80009
:1019b000809fbe00829fbe00849fbe00869fbe00a7
:1019c0003400f80000002000a00188000000fa00a8
:1019d0008460a900370307000000e0000300320024
:1019e0003631020000000000000000000080fa0014
:1019f0003400f9004f03be004f02be004f01be008d
:101a00004f00be003600f900004006000040da003a
:101a10000000fe0000000500090037003042780099
:101a2000b1417800834f52000400320010002000c2
:101a3000060031000080eb00000006000201e90012
:101a40000200e000f5ff3a000000eb000000060095
:101a50008001780002003700b15978000201e900e6
:101a60000200e000fcff3a00000006008001780060
:101a700002003700815978000201e9000200e0000d
:081a8000fcff3a000000060023
:020000040000fa
:101a880011110000222200003333000044440000fa
:101a980055550000666600007777000088880000ca
:101aa80099990000aaaa0000bbbb0000cccc00009a
:101ab800dddd0000eeee0000cecd0000acab000096
:101ac800494400004c45000000a50000a5a5000001
:101ad800a5a50000a5a50000a5a50000a5a50000d6
:101ae800a5a50000a5a50000a5a50000a5a50000c6
:081af800a5000000040000003d
:020000040000fa
:101b00001000fa002007980031079800420798005b
:101b1000530798006407980075079800600220003a
:101b2000fd0e0700000f78001e0078000000e000a6
:101b30000e0032004e00900000004000f60e07003c
:101b4000800078001e007800410898001e00780090
:101b5000400890000000e00004003a001e007800f9
:101b60005f0f07000000eb00000f78001e007800f8
:101b70000000e000120032004e0090008000eb00f8
:101b80000001eb00821f78009e0378007e03900026
:101b9000ee0290005e0290000001be00be009000c8
:101ba0002e0090000b0007008f87e9001e007800d0
:101bb0007200070010002000100798000200370094
:101bc0000080eb00100798001e0090000080fa00d3
:101bd000000006001400fa00200798003107980062
:101be000420798005307980064079800750798000b
:101bf000060f9800170f98004e009000000040005c
:101c0000800078001e0890004008900001017800d4
:101c1000510a200095ff07001e089000c0089000a0
:101c2000110798001e089000c00890004e01900017
:101c3000f0ff2700000041000000400080804000cd
:101c40001e089000710898003e0090000000e0001f
:101c5000190032000000eb00000f78000d00370083
:101c60003e0090001e004000904078001e0890004a
:101c70001e0040007a004000014878003e009000bd
:101c80001e004000104078000004e0000500320013
:101c90001e0fe8001e007800e30f5000f0ff360032
:101ca00001003700000000001e0890008040eb009b
:101cb00051589800030037001e0890008040eb0048
:101cc000215898007e009000e30f5000020036007b
:101cd00030002000700798001e089000fe00900061
:101ce000310898001e0890000080e800cb0f070024
:101cf0001e0890006c004000c80f07001e089000ee
:101d00009e089000410098007e009000e4001000c2
:101d10001e089000610098001e0890009e08900028
:101d2000110898001e0990006000b800001198008a
:101d3000111198001e0890008040eb00416098004f
:101d40006e019000ae0090001e0090002e10070063
:101d5000800078001e089000010878000e089000ae
:101d60000000e000030032000e0890009e08900082
:101d7000010878000080fa00000006000200fa0066
:101d8000000f780096100700304080000000e80047
:101d900030408800004080000000e00007003a006a
:101da0009e0078000140880030408000e10f500024
:101db0000d003a00ce0307000b00370060408000a2
:101dc0000000e00008003a0000408000b0089000e9
:101dd0001e00780030089000808f500002003e0006
:101de0009e00780001408800a04080000000e800cc
:101df000a04088001e007800b0089000504080008d
:101e0000808f5000030036001e00780030089000dc
:101e1000504088001e81e8001e00780030089000c5
:101e20006a00b900800078008043210000804000f3
:101e300082007800800f0700761007006040800065
:101e40000000e0000900320000408000b00890006f
:101e50001e00780030089000808f50000300310091
:101e60003631020000000000000000000080fa008f
:101e7000000006000c00fa00400798005107980087
:101e80000000eb00000f78008e0107004140800049
:101e9000110798004e009000900078005e009000be
:101ea00000804000200798004e00900090007800cd
:101eb0001e009000808f50000c0036004e009000f5
:101ec000900078002e009000808f500012003600a5
:101ed000ae0090001e009000808f50000e00360073
:101ee00010002000000f78000b0037004e0090001b
:101ef000900078002e009000808f500004003e007b
:101f0000ae0090001e009000808f5000020036004e
:101f100010002000000f78004e009000ae009000ee
:101f2000010878001e0078000000e0000500320083
:101f3000ae0090001e009000008050008000eb007a
:101f40009005070065010700300798003e009000eb
:101f50000000e00003003a003631020000000000fb
:101f6000000000000080fa00000006000400fa00f3
:101f7000100798000000eb00000f78001e00900092
:101f80000000e000060032004e0107008000eb0078
:101f90001e0090007b05070050010700000f78002d
:101fa0001e0078000000e00003003a003631020015
:101fb00000000000000000000080fa0000000600a1
:101fc0000c00fa0040079800510798000000eb0051
:101fd000000f78005e009000e30f50000200360012
:101fe0003000200050079800fd0f07004e009000c1
:101ff0000000e00002003a000040800001003700cd
:102000004e009000100798001e009000b00890004d
:1020100021079800ae0090005e009000808f500075
:1020200048003200de0090002e009000808f5000ab
:102030000c003600004080009e009000808f500011
:102040000e00320000408000b00890005e0090005a
:10205000808f500009003e0010002000000f780023
:1020600006003700004080009e009000808f5000e6
:1020700002003a0010002000000f78001e009000bf
:10208000b0089000310798001e009000de0090001c
:10209000310898001e009000600090000000e000f1
:1020a000040035005e009000e40010001e00900067
:1020b000610098001e009000500190003e009000ca
:1020c0006a00b90080007800804321000080400051
:1020d000800f510015003a001e0090000080e800bb
:1020e000250f07001e009000b008900050408000af
:1020f000808f5000030036001e00900030089000d2
:10210000504088001e0090000081e8001e009000f2
:10211000300890006a00b9008000780080432100f8
:102120000080400082007800c30e07001e00780087
:102130000000e00003003200363102000000000021
:1021400000000000b30f07000080fa000000060046
:102150000400fa0010079800a10f07001e0090006d
:102160000000e00002003a0000408000010037005b
:102170001e009000000f78001e80e800fe0e070091
:102180001e007800200890000000e00003003200ec
:102190009e0078006c804000f70e07001e80e8006b
:1021a00080007800e0472100a30e07001e007800a1
:1021b00040609000e14f500003003a001e0078009c
:1021c0008040eb0041609800920f07006040800063
:1021d0000000e00003003200810f0700e302070067
:1021e0008c0f0700004080009e007800808f500018
:1021f0000e003a00604080000000e0000400320061
:102200003631020000000000000000000700370027
:10221000f1a3800030408000808f500002003a001f
:102220000028ef0001003700910107000080fa004c
:10223000000006000600fa00200798000000eb00ee
:10224000000f7800ae009000110798001e0090006b
:10225000d0009000e0472100808f50000b003a0032
:102260001e009000a008900040472100808f500081
:10227000060032001e009000200890000000e000e0
:1022800002003a0010002000000f78001e007800c5
:102290000080fa00000006000400fa001007980011
:1022a0009e009000010f7800004080009e007800a2
:1022b000808f5000250032001e0078000000e000f2
:1022c00022003200460f07001e007800d9ff0700e9
:1022d0000000e0001c0032001e80e800a60e07008f
:1022e0001e007800b008900050408000808f5000a1
:1022f000030036001e00780030089000504088002f
:102300001e81e8001e007800300890006a00b900c5
:102310008000780080432100008040008200780027
:10232000450e07001e007800b008900000408000b5
:1023300030089000808f50000300390036310200d1
:102340000000000000000000320f07000080fa00cb
:10235000000006000800fa00300798000000eb00bb
:10236000000f7800be009000110798000000eb00fd
:10237000200798001e009000aeff07000000e0005c
:1023800026003200d04080000000e0001e003a002d
:102390001e009000b00890000040800030089000bf
:1023a000808f50000200390010002000000f7800dc
:1023b0001e0090000080e8006f0e07001e009000d5
:1023c000b008900050408000808f5000030036001d
:1023d0001e00900030089000504088001e009000c1
:1023e0000081e8001e009000300890006a00b900eb
:1023f0008000780080432100008040008200780047
:102400000d0e0700050037001e0090006c00400014
:102410008000780040472100070e07001e0078006a
:102420000080fa00000006000200fa00858120000a
:102430000002eb008001eb003207200041d62800ab
:1024400020662100aefd0700000f78001e00780016
:10245000e10f50000d003a0011028000f0f12f0052
:10246000008060000050a000100288000000000002
:10247000000000000080eb00b04088001000200049
:10248000604088000828ef00a70e07000080fa00cf
:10249000000006000000fa0011028000f0f12f0099
:1024a000008060000050a0001002880000000000c2
:1024b000000000000c28ef00b20e07000080fa00b8
:1024c000000006000000fa00d04080000000e80094
:1024d000d04088000080fa00000006000600fa00e4
:1024e0000000eb00000f78000000eb0010079800e0
:1024f000bb0e0700d04080000000e900d0408800fb
:10250000d04080000000e00045003a0030408000ec
:102510000000e0004200320021003700d0a380001c
:1025200030009000000f78009e0078006c80400022
:10253000110e07001e80e8000f0e07001e00780035
:10254000b008900050408000808f5000030036009b
:102550001e00780030089000504088001e81e8007e
:102560001e007800300890006a00b90080007800f2
:10257000804321000080400082007800ae0d0700fb
:102580001e007800b00890000040800030089000e5
:10259000808f500002003900100020008040880029
:1025a000a0a380000000e000dcff3a001e007800dd
:1025b0000000e00001003200ec01070071408000e3
:1025c000210798002e0090000000e0000c0032006f
:1025d000380007000000e000020032001000200078
:1025e000804088002e0090000000e900200798003d
:1025f0002e0090000000e000f5ff3a000e28ef00ea
:10260000804080000000e000050032001000200043
:1026100010079800363102000000000000000000a2
:102620007c0e07001e0090000080fa0000000600eb
:102630000200fa006a0e070041408000010f780096
:10264000740e07001e0078000080fa0000000600eb
:102650000400fa000000eb00000f78004140800009
:10266000110798001e0090000080fa00000006008c
:102670000000fa00304080000080fa0000000600f0
:102680000400fa00100798001e0090000000e0000f
:1026900002003a0000408000010037001e00900058
:1026a000000f78009e0078007a8040000080fa00d9
:1026b000000006000a00fa000000eb00000f78009e
:1026c000d04080000000e0005e003a004040800002
:1026d0000000e800100798009e009000414088002c
:1026e0001e0090000000e0000a003a001140800047
:1026f000210798002040800010408800ae00900024
:1027000021408800904080000000e8009040880050
:1027100096010700b04080009e009000808f50001e
:102720003c0039000100370000000000104080002c
:10273000100078000000e00003003a000080eb0089
:10274000b040880033003700104080003000900017
:1027500030009000300798003e00900090009000fc
:10276000410798009e0090004e009000808f50001e
:1027700003003100ce009000b140880025003700f2
:102780003e0090000080e8007b0d07003e009000b6
:10279000200890000000e000030032003e0090009e
:1027a0006c004000740d07003e009000b0089000df
:1027b00050408000808f5000030036003e009000a3
:1027c00030089000504088003e0090000081e800f2
:1027d0003e009000300890006a00b9008000780048
:1027e000804321000080400082007800120d070025
:1027f0003e009000b008900000408000300890003b
:10280000808f5000c8ff390010002000000f7800b2
:10281000c6ff370000408000300890006a00b90011
:102820008000780080432100008040001000780084
:10283000e10f50000600360010002000000f780065
:1028400003003700704080000000e80070408800fe
:10285000804080000000e0000200320010002000f4
:10286000000f78001e0078000080fa0000000600cb
:102870000600fa00d04080000000e00003003200b3
:102880001000200080408800390037001028ef0039
:102890000040800070089000100798001e00900013
:1028a00074005000100798004201200091d62800c3
:1028b0001e00900058fc07000000e00004003200f9
:1028c00000408000fa00400000408000570e0700e2
:1028d00051408000010f7800010037001e0fe90011
:1028e0001e0078006a00b900800078008043210053
:1028f00000804000100078000000e000f7ff320088
:102900001e0078006a00b900800078008043210032
:1029100000804000200798002e00900010009000da
:10292000900090002e009000110098002e00900062
:10293000900090002e00900064004000808f5000b6
:1029400005003a002e0090001000900090009000ca
:102950002e009000110098002e00900010009000b2
:1029600030009000004088009e00780051408800b0
:102970000080fa00000006000400fa00000f780052
:1029800011079800004080006c0040008000780033
:102990001e007800c60c0700110020001e009000e9
:1029a000f80207000080fa00000006000600fa00a6
:1029b000000f78001107980022079800004080005f
:1029c0009e00900001f0a00061009800004080008f
:1029d0006c004000800078001e007800960c070014
:1029e000110020002e009000e60207000080fa008f
:1029f000000006000600fa00200798002e00900054
:102a00003000900030009000100798001e009000e9
:102a10006c004000d80c0700d04080000000e000af
:102a200016003a001e0090000080e800d20c07005b
:102a30001e009000b008900050408000808f500031
:102a4000030036001e0090003008900050408800bf
:102a50001e0090000081e8001e00900030089000e9
:102a60006a00b900800078008043210000804000a7
:102a700082007800700c0700050037001e009000ef
:102a80006c00400080007800404721006a0c07007d
:102a90001e009000b00890000040800030089000b8
:102aa000808f50000500360010002000000f7800d5
:102ab0001000200080408800020037000000eb007a
:102ac000000f78001e0078000080fa000000060069
:102ad0000600fa0010079800210798002e009000c9
:102ae0008000780001f0a0001e009000010878002e
:102af0001e00900030009000000f78001e00900033
:102b00009d0c07001e80e8009b0c07001e0078004b
:102b1000b008900050408000808f500003003600c5
:102b20001e00780030089000504088001e81e800a8
:102b30001e007800300890006a00b900800078001c
:102b40008043210000804000820078003a0c07009a
:102b50001e007800b008900000408000300890000f
:102b6000808f500002003600100020008040880056
:102b70000080fa00000006000200fa00000f780052
:102b8000170d0700914080001e00780001087800b2
:102b9000414080001e007800110098001d0d0700c4
:102ba0000080fa00000006000200fa00000f780022
:102bb000914080001e0078000108780041408000ac
:102bc0001e007800110098000080fa000000060046
:102bd0000a00fa003007980041079800000d07002e
:102be00041408000110798003e00900010009000c6
:102bf0009e00900000805000200798004e0090003a
:102c000010007800e10f400003003a000000eb00e4
:102c1000000f7800220037003e00900090007800fe
:102c200090408000808f5000080032003e009000ed
:102c3000900090001e009000808f500003003e0026
:102c400010002000000f7800150037004e009000a3
:102c5000900078002e009000808f50000b0036000e
:102c60004e009000900078002e0090008080500070
:102c70004e009000010878003e009000caff070057
:102c80000000eb00000f7800050037004e009000b8
:102c90008000eb000108780010002000000f780091
:102ca000dc0c07001e0078000080fa00000006001f
:102cb0000000fa0010002000804088000080fa0028
:102cc000000006000200fa00000f78002400070050
:102cd000c0a18000e10f5000030036003631020031
:102ce00000000000000000004c0d0700f7ff370057
:102cf0000200fa000000eb00000f78000700370028
:102d00001e0078006a00b90080007800804321002e
:102d100000804000a80b07001e0fe8001e0078008e
:102d2000e30f5000f6ff360000462100a20b07001b
:102d3000a0462100a00b0700404721009e0b070082
:102d4000e04721009c0b070000462100104088004e
:102d5000a0462100204088000080fa000000060004
:102d60000000fa000080fa00000006000200fa00ed
:102d700010408000100078000000e00003003a00de
:102d80000080eb00b0408800070037001040800052
:102d90003000900030009000000f78001e00780096
:102da00010009000b04088000080fa00000006008b
:102db0000200fa0000408000e0009000010f78005f
:102dc0000040800001408000b1089000e4801000c5
:102dd000610098001e0078000080fa0000000600e4
:102de0000800fa0020079800310798007c0c0700c3
:102df000004080009010900000109000e00f500004
:102e0000e08f58000c003a000040800011c0b30071
:102e1000416098003e0090000000e0000600320093
:102e2000110020003e009000d6010700363102005c
:102e30000000000000000000760c0700680c07008e
:102e4000004080000011900090119000028fbe00a1
:102e50001e00be00e00f5000e08f58000f0032004f
:102e60002e0090000000e0000500320002408000cb
:102e70006000b80000119800111198000700370099
:102e8000024080000082eb008082eb003e004200a6
:102e9000ae804a0000119800111198000040800097
:102ea0008040eb00416098005a0c07001e00be00f5
:102eb0000080fa00000006000e00fa0010079800db
:102ec000210798003207980043079800540798009c
:102ed00065079800420c07000040800040609000a9
:102ee000e24f5000220032000440800004119000a4
:102ef000941190001e009000ae0090000080ea0047
:102f00008180ea0082027800030178008001780065
:102f10000100780083826200000061008000eb0005
:102f2000c000dd00000020000001be006128b800e4
:102f30000001710081817100021298001312980043
:102f40000040800011c0b300416098006e00900006
:102f50000000e00006003200110020006e0090002a
:102f60008801070036310200000000000000000068
:102f7000280c07001a0c07005e0090000000e0001b
:102f8000050032000040800090109000001090007a
:102f90005e0190000089be0000408000406090000b
:102fa000e24f5000030032000000eb00000f7800f9
:102fb0001800370004408000041190009411900024
:102fc0003e009000ce0090000080ea008180ea0080
:102fd0008202780003017800800178000100780007
:102fe00083826200000061008000eb00c000dd0011
:102ff000000020000001be006128b800000171003f
:1030000081817100021298001312980010002000b4
:10301000000f7800004080008040eb004160980085
:10302000fc0b07001e0078000080fa00000006007c
:103030001000fa00300798004207980053079800e4
:10304000610798007407980010002000000f7800b6
:10305000be00900011079800e10b07007e00900071
:103060000000e000050032001e009000901090006b
:10307000001090007e0190000089be001e009000ac
:1030800040619000424798001e00900021c0b300ac
:10309000416098006e009000e20f5000170032006f
:1030a000e20f500005003e000000e0002e0032005c
:1030b000e10f5000060032002c003700e30f5000f3
:1030c00017003200e40f50001b00320027003700c9
:1030d0001e00900000119000901190004e00900092
:1030e000de00900000007100818071001e019000e0
:1030f00000119800111198001c0037001e0090006c
:10310000901090000010900061004000e0804800a6
:103110001e01900000119800111198001300370053
:103120001e0090004e019000de01900002109800f9
:10313000131098000d0037004e409000e24f5000f1
:10314000060032001e0090004e019000de0190004b
:103150000210980013109800040037000000eb00e4
:10316000000f780001003700000000004e40900082
:10317000e14f50001e003a001e0090000080e80061
:10318000fd0a07001e009000b0089000504080002b
:10319000808f5000030036001e0090003008900021
:1031a000504088001e0090000081e8001e00900042
:1031b000300890006a00b900800078008043210048
:1031c00000804000820078009b0a07001e009000eb
:1031d000b00890000040800030089000808f5000c0
:1031e000030036003631020000000000000000003d
:1031f000880b07001e0078000080fa00000006001f
:103200001400fa00400798005207980063079800de
:1032100071079800040f9800150f98001000200007
:10322000000f7800ce009000110798000000eb001e
:10323000200798000e0890000000e0000500320012
:103240001e00900090109000001090000e09900059
:103250000089be001e009000406190006247980007
:103260001e00900021c0b300416098007e009000d5
:10327000e20f500017003200e20f500005003e0040
:103280000000e0002e003200e10f50000600320086
:103290002c003700e30f500017003200e40f5000fd
:1032a0001b003200270037001e0090000011900024
:1032b000901190005e009000ee0090000000710000
:1032c000818071001e01900000119800111198007a
:1032d0001c0037001e00900090109000001090001d
:1032e00061004000e08048001e019000001198003d
:1032f00011119800130037001e0090005e0190002d
:10330000ee01900002109800131098000d00370095
:103310006e409000e24f5000060032001e00900008
:103320005e019000ee0190000210980013109800ca
:10333000040037000000eb00000f780001003700a8
:10334000000000006e409000e14f50002c003a0059
:10335000d04080000000e00016003a001e009000ff
:103360000080e800840a07001e009000b00890006a
:1033700050408000808f5000030036001e009000f7
:1033800030089000504088001e0090000081e80046
:103390001e009000300890006a00b900800078009c
:1033a000804321000080400082007800220a07004c
:1033b000050037001e0090006c004000800078007f
:1033c000404721001c0a07001e009000b008900032
:1033d0000040800030089000808f500008003600c8
:1033e0001e0890000000e000030032001e0890005c
:1033f00011002000010878001000200080408800a3
:103400001e0078000080fa00000006000a00fa00a2
:103410003007980041079800be009000010f780027
:103420000000eb00100798001e007800c0609000bc
:10343000414798001e00780021c0b3004160980009
:103440001e00780090109000001090006100400075
:10345000e08048001e0178000011980011119800ca
:103460004e409000e14f50002a003a00d0408000ca
:103470000000e00014003a001e80e8003e0a070049
:103480001e007800b008900050408000808f5000ef
:10349000030036001e00780030089000504088007d
:1034a0001e81e8001e007800300890006a00b90014
:1034b0008000780080432100008040008200780076
:1034c000dd090700050037009e0078006c80400091
:1034d0008000780040472100d70907001e007800cf
:1034e000b00890000040800030089000808f5000ad
:1034f000080036004e0090000000e000030032009b
:103500004e009000110020000108780010002000fb
:10351000804088000080fa00000006000600fa00e3
:10352000200798002e0090000000e00002003a0002
:1035300000408000010037002e0090001007980026
:10354000a70a07001e00900040609000e24f500064
:1035500006003a001e0090008040eb004160980099
:1035600010002000000f7800020037000000eb0080
:10357000000f7800a70a07001e0078000080fa00fc
:10358000000006000800fa002007980031079800a4
:1035900041408000010f7800004080000080e8007a
:1035a000f50907002e009000e10f400009003a00e5
:1035b0003e0090000000e000060032000040800065
:1035c0000080e80080007800e04721009a090700a9
:1035d000180037002e0090001e00400010079800d1
:1035e000004080009e009000110098001e00900096
:1035f0009e0f500005003100004080008080e800f0
:1036000020408000aa0907000a003700004080001f
:103610008080e80010408000a5090700b0408000cd
:103620009e009000808f5000020031009e009000ac
:10363000b14088000080fa00000006000600fa0091
:1036400010079800210798009e009000010f780055
:10365000630a07001e007800100178001e00780041
:10366000f00890001e007800001090000088b9005b
:1036700000007800800041001e00780021009800c2
:103680001e0078008000eb00610898001e007800a2
:10369000900078001e007800110098001e0078004d
:1036a000100178001e007800700890008000e9008a
:1036b0001e007800001090000088b900000078001b
:1036c000800041001e007800310098001e00780044
:1036d00080c0eb00216098001e00780080c0eb00e5
:1036e000316098002e0090000000e0000d003a00cc
:1036f0001e007800400090000000e0000f00320043
:103700009e00780068804000bafc07000000e000de
:103710000a00320036310200000000000000000004
:10372000060037009e0078006880400022090700ec
:103730009e007800728040001f090700350a0700cc
:10374000100020000080fa00000006000c00fa00c3
:103750003007980041079800224f98004e009000d3
:103760000000e00003003a000000eb00000f7800ca
:1037700005003700be0090004e0090000088b900a0
:1037800000007800000f7800410220001e804000f9
:10379000e1070700100798001e0090000000e000fd
:1037a0000b0032009e009000210798002e00900030
:1037b0004002b000200798001e029000ae49900021
:1037c0002e019000ce0090003e0090000300070004
:1037d0001e0090000080fa00000006000a00fa00b7
:1037e000000f78001107980022079800634798009f
:1037f000440798001e0090000000e00004003a001a
:10380000ce0090004e0090000108780003003700c1
:10381000ae0090004e009000010878004e0090002d
:103820009e007800710898004e0090009e00900065
:1038300001109800110020004e0090007fff07004b
:103840000080fa00000006001200fa0050079800fd
:103850006107980072079800030f98000000eb00c2
:10386000000f7800de00900011079800010037007b
:1038700000000000da0907001e009000e008900038
:103880001e00900070089000808f500003003900e7
:103890000e089000e20f50001b003a000e09900045
:1038a000ee0090001e00900086020700200798009e
:1038b0001e009000100890000000e0000900320097
:1038c0001e009000720040004afc07000000e0006b
:1038d0000a00320036310200000000000000000043
:1038e000060037002e0090000000e00003003200c8
:1038f000363102000000000000000000c50907008a
:10390000100020003d0037007e0090000000e00025
:1039100003003a00bf0907000000eb003700370042
:103920001e0078000000e00004003a006600470036
:103930009dfc070010002000000f7800b50907006b
:10394000e0fa0700a60907001e0090002060900022
:10395000e14f400003003a001e0090008040eb0061
:10396000216098001e00900030609000e14f400000
:1039700003003a001e0090008040eb003160980088
:10398000a4090700ee0047006600470090fc07000e
:103990000000e00015003a001e009000160307002a
:1039a0000000e0000d003200fe0090001e009000bc
:1039b00068004000f0fb07001e009000b602070000
:1039c000c6fa07000000e000a9ff3a003631020005
:1039d0000000000000000000a6ff37001e0090005d
:1039e000ad020700bdfa0700a2ff37001e009000dd
:1039f000a9020700b9fa07000000eb000080fa00f6
:103a0000000006001000fa004007980051079800d7
:103a10006207980073079800ce0090001107980085
:103a20000000eb00200798001e009000e0089000c6
:103a30001e00900070089000808f50000300390035
:103a40007e009000e20f500022003a001e0090001d
:103a5000b0609000614798007e019000de00900009
:103a60001e009000170207006e409000e14f4000da
:103a700010003a001e009000100890000000e000c6
:103a8000110032001e00900072004000d9fb0700b8
:103a90000000e0000c0032006e0090000000e0002a
:103aa000090032006e00900011002000010878002b
:103ab000050037006e4090000040e800804078002c
:103ac0001e0090003160980010002000000f780068
:103ad000020037000000eb00000f78001e007800a5
:103ae0000080fa00000006000e00fa00500798005f
:103af00061079800de009000110798000000eb00bd
:103b0000200798001e009000e00890003107980000
:103b10001e009000f00890003e009000808f500042
:103b2000220036001e009000b0609000014f980007
:103b30003e0090008000e8001e00900061089800a0
:103b40000e489000e14f400010003a001e00900027
:103b5000100890000000e000110032001e009000ec
:103b600072004000a3fb07000000e0000c003200e0
:103b70006e0090000000e000090032006e0090002e
:103b80001100200001087800050037000e48900061
:103b90000040e800804078001e00900031609800ee
:103ba00010002000000f7800020037000000eb003a
:103bb000000f78001e0078000080fa000000060068
:103bc0001000fa00500798006107980072079800eb
:103bd0000000eb00000f7800de0090001107980055
:103be0000300370000000000010037000000000063
:103bf000fb0807001e009000e008900021079800d5
:103c00002e0090000000e00016003200ee00900050
:103c10001e009000fe0107002e0090008000e900c9
:103c20001e009000610898001e0090004000900067
:103c30000000e000080032001e0090006800400014
:103c40006cfb07000000e000030032003631020088
:103c50000000000000000000ee0807001000200037
:103c6000410037007e0090000000e00003003a00b1
:103c7000e80807000000eb003b0037001e0078005a
:103c80000000e00004003a0066004700c6fb0700a1
:103c900010002000000f7800de08070009fa070076
:103ca000cf0807001e00900020609000e14f400008
:103cb00003003a001e0090008040eb002160980055
:103cc0001e00900030609000e14f400003003a0079
:103cd0001e0090008040eb0031609800cd08070086
:103ce000ee00470066004700b9fb07000000e00057
:103cf00015003a001e0090001f0207000000e000bf
:103d00000d003200fe0090001e0090007200400086
:103d100019fb07001e009000df010700eff9070004
:103d20000000e000afff3a00363102000000000062
:103d300000000000aeff37001e009000d601070013
:103d4000e6f90700aaff37001e009000d201070025
:103d5000e2f907001e009000070207000000e000e3
:103d6000a2ff32000000eb000080fa000000060015
:103d70000e00fa0050079800610798000000eb0061
:103d8000000f7800de009000110798000300370054
:103d9000000000000100370000000000900807004c
:103da0001e009000e0089000210798002e0090006f
:103db0000000e000130032002e0090008000e900b7
:103dc0001e009000610898001e00900040009000c6
:103dd0000000e000080032001e0090006800400073
:103de00004fb07000000e00003003200363102004f
:103df00000000000000000008608070010002000fe
:103e0000410037006e0090000000e00003003a001f
:103e1000800807000000eb003b0037001e00780020
:103e20000000e00004003a00660047005efb070067
:103e300010002000000f780076080700a1f90700a5
:103e4000670807001e00900020609000e14f4000ce
:103e500003003a001e0090008040eb0021609800b3
:103e60001e00900030609000e14f400003003a00d7
:103e70001e0090008040eb0031609800650807004c
:103e8000ec0047006600470051fb07000000e0001f
:103e900015003a001e009000b70107000000e00086
:103ea0000d003200ee0090001e00900072004000f5
:103eb000b1fa07001e0090007701070087f907009c
:103ec0000000e000b2ff3a003631020000000000be
:103ed00000000000b1ff37001e0090006e010700d7
:103ee0007ef90700adff37001e0090006a01070051
:103ef0007af907001e0090009f0107000000e00013
:103f0000a5ff32000000eb000080fa000000060070
:103f10001200fa006007980071079800020f9800dd
:103f20000000eb00000f7800ee00900011079800f1
:103f3000030037000000000001003700000000000f
:103f4000270807001e009000e00890002107980055
:103f50002e0090000000e000180032001e009000cb
:103f6000b000900031079800fe0090001e00900005
:103f7000270107001e009000be009000310098004d
:103f80001e009000100890000000e00008003200c1
:103f90001e0090007200400096fa07000000e0004a
:103fa0000300320036310200000000000000000073
:103fb0001808070010002000410037000e0890008c
:103fc0000000e00003003a00120807000000eb00c8
:103fd0003b0037001e0078000000e00004003a00bb
:103fe00068004700f0fa070010002000000f78007a
:103ff0000808070033f90700f90707001e009000c2
:1040000020609000e14f400003003a001e00900045
:104010008040eb00216098001e009000306090000e
:10402000e14f400003003a001e0090008040eb008a
:1040300031609800f7070700f0004700680047006c
:10404000e3fa07000000e00015003a001e009000af
:10405000490107000000e0000d0032008e089000ca
:104060001e0090007200400043fa07001e009000fe
:104070000901070019f907000000e000adff3a0050
:10408000363102000000000000000000acff3700e5
:104090001e0090000001070010f90700a8ff37007c
:1040a0001e009000fc0007000cf907001e009000a5
:1040b000310107000000e000a0ff32000000eb002b
:1040c0000080fa00000006001000fa005007980077
:1040d0006107980072079800de00900011079800b1
:1040e0000000eb00200798001e009000e008900000
:1040f000310798003e0090000000e00025003200eb
:104100001e009000a0609000014f9800ee0090000b
:104110001e009000be0007003e0090008000e900f5
:104120001e009000610898000e489000e14f40008a
:1041300010003a001e009000400090000000e000d7
:10414000110032001e0090006800400029fa0700ac
:104150000000e0000c0032007e0090000000e00053
:10416000090032007e009000110020000108780054
:10417000050037000e4890000040e80080407800bd
:104180001e0090002160980010002000000f7800b1
:10419000020037000000eb00000f78001e007800de
:1041a0000080fa00000006000c00fa0040079800aa
:1041b00051079800ce009000110798000000eb0016
:1041c000200798001e009000600890000000e000aa
:1041d0000c0032001e009000b000900031079800e3
:1041e000de0090001e009000890007001e00900075
:1041f000be0090003100980010002000000f7800f1
:10420000020037000000eb00000f78001e0078006d
:104210000080fa00000006000400fa001007980071
:104220006f0707001e009000e0089000010f780063
:10423000780707001e0078000080fa0000000600e2
:104240000600fa0020079800ae009000010f7800e9
:10425000630707001e007800f00890001e00780039
:104260006008900000805000100798006907070060
:104270001e0090000080fa00000006000600fa0010
:1042800020079800ae009000010f78001e00780013
:10429000e0089000110798001e0090000080fa00ce
:1042a000000006000400fa00100798009e0090002d
:1042b000010f78001e007800890507000080fa00d1
:1042c000000006000a00fa00200798003107980055
:1042d000420798000000eb00100798002e009000a5
:1042e000e0089000010f78002e0090000010900070
:1042f0000000e000400032004e0090000000e000ae
:1043000019003a002e009000801090002e009000be
:104310001000900001017800be009000ccf507006d
:104320002e009000900090002e0090000010900051
:10433000808040002e009000110098002e00900018
:10434000900090002e00900020009000808f500080
:10435000290039002e009000900078002e00900077
:1043600011009800240037002e009000801090006b
:104370002e0090003000900001017800be009000f7
:10438000b3f507002e009000b00090002e009000c2
:10439000001090000000ea00808040002e00900095
:1043a000310098002e009000b00090002e00900088
:1043b00010007800808f5000080031002e0090001f
:1043c000a00090002e009000001090000000ea0075
:1043d000808040002e009000310098004e00900038
:1043e000e20f500004003a001e0078000000e000d8
:1043f000010032001e0fe9009e00e8002e00900030
:10440000610898001e0090000080fa00000006007d
:104410000400fa00000f7800110798001e007800d1
:10442000001090000000e000190032001e0078002b
:10443000b00090001e0078000010900080804000c6
:104440001e007800310098001e007800b000900037
:104450001e00780020009000808f5000040039007a
:104460001e007800900078001e007800310098004f
:104470001e007800801090001e0078003000900030
:1044800001017800800078001e00900070f50700a0
:104490000080fa00000006000400fa0010079800ef
:1044a000cf0607001e009000b0609000014f78001a
:1044b0000b0037001e009000100890000000e00084
:1044c0000b0032001e0090007200400049f9070006
:1044d0000000e00001003200f5f907001e4fe9007e
:1044e0001e4078000004e000f2ff3c0001003700ad
:1044f000000000001e00900080c0eb0031609800ba
:10450000c4060700b60607001e009000a0609000d9
:10451000114798000d0037001e00900040009000e9
:104520000000e0000d0032001e0090006800400016
:1045300030f907000000e00001003200dcf907005c
:104540001e4090000040e900104798001e40900077
:104550000004e000f0ff3c00010037000000000014
:104560001e00900080c0eb0021609800a9060700a3
:104570000080fa00000006000400fa00100798000e
:10458000970607001e009000600890000000e00001
:1045900003003a0010002000000f780002003700ee
:1045a0000000eb00000f78009a0607001e0078005c
:1045b0000080fa00000006000600fa0020079800bc
:1045c000ae009000110798001e0090006008900057
:1045d0000000e00003003a0010002000000f780007
:1045e000020037000000eb00000f78001e0078008a
:1045f0000080fa00000006000400fa00100798008e
:10460000770607001e009000e00890001e00900052
:1046100070089000808f500003003a0010002000c6
:10462000000f7800020037000000eb00000f780058
:10463000780607001e0078000080fa0000000600df
:104640000600fa0020079800ae00900011079800bd
:104650001e009000e00890001e009000700890007e
:10466000808f500003003a0010002000000f7800f7
:10467000020037000000eb00000f78001e007800f9
:104680000080fa00000006000a00fa0020079800e7
:104690003107980042079800ae009000110798007b
:1046a00011028000f0f12f00008060000050a00097
:1046b0001002880000000000000000001e009000b2
:1046c000cdff07000000e000160032004e00900011
:1046d0000000e0000c0032001e0090006800400066
:1046e000800078004e009000fa020700110280005e
:1046f000f0f12f0000806000100288000000000030
:10470000c0ff2f003300370011028000f0f12f00ae
:104710000080600010028800000000000000eb0034
:104720002c00370011028000f0f12f0000806000a3
:10473000100288000000000011028000f0f12f003c
:10474000008060000050a0001002880000000000ff
:10475000000000001e009000e00890001e00900085
:1047600070089000808f5000120031000001eb00b3
:10477000be0090001e009000d2fe07001000200036
:10478000000f78001e009000100890000000e0006c
:104790000a0032001e00900072004000c2030700b1
:1047a0000000e00005003200b0ff2f00000f78008d
:1047b000020037000000eb00000f780011028000bb
:1047c000f0f12f000080600010028800000000005f
:1047d0001e0078000080fa00000006000a00fa00bf
:1047e000200798003107980042079800ae0090001b
:1047f0001107980011028000f0f12f000080600086
:104800000050a0001002880000000000000000001e
:104810001e009000600890000000e00016003a00c2
:104820004e0090000000e0000c0032001e009000de
:1048300072004000800078004e009000a502070042
:1048400011028000f0f12f0000806000100288004b
:1048500000000000c0ff2f004b0037001102800055
:10486000f0f12f00008060001002880000000000be
:104870000000eb004400370011028000f0f12f002f
:10488000008060001002880000000000110280001b
:10489000f0f12f00008060000050a000100288009e
:1048a00000000000000000001e0090006008900062
:1048b0000000e0002c0032001e009000b0009000cc
:1048c0001e00900000109000808040001e009000ac
:1048d000310098001e009000b00090001e00900073
:1048e00020009000808f5000040039001e009000ce
:1048f000900078001e009000310098001e0090008b
:10490000600890008000e9001e0090006108980097
:104910001e009000801090001e009000300090005b
:1049200001017800800078003e00900048f4070004
:1049300010002000000f78001e0090004000900042
:104940000000e0000a0032001e00900068004000f5
:10495000550307000000e00005003200b0ff2f0003
:10496000000f7800020037000000eb00000f780015
:1049700011028000f0f12f0000806000100288001a
:10498000000000001e0078000080fa000000060011
:104990000800fa00100798002107980032079800d5
:1049a0009e009000010f78001e007800e008900043
:1049b0001e00780070089000808f500012003100b7
:1049c0000001eb00ae0090001e0078003dfe0700e5
:1049d0003e0090000000e0000b003a001e0078004e
:1049e000100890000000e000070032009e007800f0
:1049f000728040002c0307000000e000020032003b
:104a000010002000010037003e0090000080fa00f6
:104a1000000006000a00fa002007980031079800fd
:104a200042079800ae009000110798001e00900009
:104a3000600890000000e000310032001e0090008d
:104a4000b00090001e009000001090008080400098
:104a50001e009000310098001e009000b0009000f1
:104a60001e00900020009000808f5000040039004c
:104a70001e009000900078001e0090003100980009
:104a80001e009000600890008000e9001e00900069
:104a9000610898001e009000801090001e00900099
:104aa0003000900001017800800078003e00900006
:104ab000e7f307004e009000100078000000e000cf
:104ac0000c003a001e009000400090000000e00042
:104ad000080032001e00900068004000f20207004b
:104ae0000000e000030032004e00900011002000a2
:104af0000108780010002000000f78000200370045
:104b00000000eb00000f78001e0078000080fa0023
:104b1000000006000200fa00c0002000fe020700ac
:104b2000000f78001e0078000000e0000500320051
:104b30001e0078008000eb00010878001e80e8006d
:104b40001d0407001e0078000080fa000000060027
:104b50001200fa0050079800610798007207980049
:104b6000030f9800de009000110798000000eb0092
:104b70002007980053f607001e0090009000780070
:104b800031079800ee0090005e009000de00070004
:104b9000be0090006e009000810070007e009000ca
:104ba000808060007e009000808f50000d003a00f1
:104bb000be0090006e009000008f70001e009000fc
:104bc000900078007e0090000080ea008080600005
:104bd0001e009000010878000000eb00000f980014
:104be000110037000e0890000000e0000a003200bb
:104bf000fe00900000502000810070001e00900018
:104c00000080e8000e09900068f707000000eb0044
:104c1000000f7800040037001e009000100f78008d
:104c200010002000200798002cf60700400798008d
:104c30000e0890000000e000200032004e009000be
:104c40000000e00003003a003631020000000000de
:104c50000000000056f80700000f78000020200038
:104c60001e0060000000e00012003a00dc040700b3
:104c70001e009000100f78007e0090009e006000e3
:104c80007e009000808f500007003a001e009000c8
:104c9000900078007e0090000080ea008080600034
:104ca0001e00900001087800da04070010002000c0
:104cb00020079800f00f20001e0f60001e007800f3
:104cc0000080fa00000006001800fa007007980043
:104cd000010f9800120f9800230f9800340f9800ce
:104ce000fe009000210798000000eb0010079800dc
:104cf0000000eb0030079800f2f507002e0090004e
:104d000090007800410798002e0990008e089000ce
:104d10004e00900008010700500798005e009000c8
:104d20000000e0000f003200ce009000010f78007c
:104d30000000eb00300f98001e0890000000e0001b
:104d4000250032002e009000900078000e089000a0
:104d50000080ea00808060002e009000010878004a
:104d60001d0037003e0890000000e00005003a00fa
:104d7000ce009000010f780010002000300798004e
:104d8000150037001e0890000000e000030032000c
:104d90001e0090000080a000100798002e089000d0
:104da0000000e000030032001e00900000a0a00000
:104db000100798008e0890001e009000810070007f
:104dc0002e0090000080e8003e099000f7f60700f2
:104dd0000000eb00000f7800c0f5070060079800a6
:104de0003e0890000000e000240032006e009000b9
:104df0000000e00003003a0036310200000000002d
:104e000000000000eaf70700000f780000202000f3
:104e10001e0060000000e00016003a007004070069
:104e20002e009000100f78002e0990008e08900040
:104e30001e007800c00007000000e0000a003200f9
:104e40001e0890000000e000070032002e009000d5
:104e5000900078000e0890000080ea0080806000da
:104e60002e00900001087800100020003007980004
:104e700068040700f00f20001e0f60001e0078007d
:104e80000080fa00000006000800fa0020079800e1
:104e900031079800ae009000010f78005004070021
:104ea0001e00780090007800110798001e0078001e
:104eb000900078003e0090000080ea008080600052
:104ec0001e00780001087800520407001e009000c0
:104ed0000080fa00000006000800fa003007980081
:104ee000be009000010f78000000eb001007980052
:104ef0001e00780090007800210798002e00900096
:104f00000080fa00000006001600fa00100f98005a
:104f1000210f98000000eb00100798009e089000f9
:104f2000310798000000eb00200798003e00900039
:104f30000080e800400798004e00900064004000a8
:104f4000500798005ff507004e009000b0009000f9
:104f5000010f78003e009000900078002e0890002d
:104f6000810070003e009000010878003b0037008f
:104f70001e00780090009000610798001e007800e5
:104f800090007800710798000000eb00200798005f
:104f9000fe00900000f02f0000806000000f9800dd
:104fa000fe009000f00f2000008060007007980065
:104fb0008e08900000402000008060000000e000ab
:104fc00009003a003e009000900078007e009000ba
:104fd000008060000000e0000c00320010002000a3
:104fe00020079800090037003e00900090007800ec
:104ff0007e009000808060007e009000808f5000d6
:1050000002003a0010002000200798002e009000b7
:105010000000e0000f0032008e0890000010200019
:10502000008060000000e000040032009e0090005c
:105030007e00900001007000100798003e00900074
:10504000100078000090a000800078001e0078001a
:105050009ff60700ee009000010f78005e009000c0
:105060009e007800808f5000c1ff3a003e00900003
:10507000900078001e0090000080ea0080806000b0
:105080003e0090000108780014f507003e009000f3
:10509000100078000080fa00000006000600fa0008
:1050a00020079800ae009000010f78001e80e800f5
:1050b0001007980003f50700040037001e00900059
:1050c000300090000120200081f607001e009000b3
:1050d000100078000000e000f8ff3a001e007800a1
:1050e000ff010700fdf407000080fa000000060041
:1050f0000600fa00000f78001207980023079800b6
:105100009e0090001e0078007fff07000080fa00dc
:10511000000006000600fa00000f78001207980051
:10512000230798009e0090001e00780056ff07009d
:105130000080fa00000006000800fa00100798003e
:1051400021079800320798000000eb00000f78005c
:105150003e0090000000e00008003a009e00900031
:105160002e009000008060000000e0000b00320084
:1051700010002000000f7800080037009e0090000b
:105180002e009000808060002e009000808f5000e4
:1051900002003a0010002000000f78001e00780086
:1051a0000080fa00000006000a00fa0020079800bc
:1051b0003107980042079800c001200056010700ff
:1051c000100798001e0090000000e0003c00320034
:1051d000004180000000e00003003a009e009000c3
:1051e00001418800160107003e009000e10f5000c9
:1051f0000200360010002000300798001e009000ca
:105200008000eb00510898001e009000be00900046
:10521000310898001e009000ce00900041089800d0
:105220001e009000ae009000010878001e00900063
:105230000080e800790207001e0090006c0040002a
:10524000760207001e0090009e009000410098002a
:105250001e0090009e009000110898003e009000f3
:10526000e20010001e009000610098001e009000f7
:10527000b008900010418000808f5000030036007d
:105280001e00900030089000104188001e00900021
:105290000081e8001e009000300890006a00b9000c
:1052a0008000780080482100008040008200780063
:1052b0006102070010002000000f78000200370094
:1052c0000080eb00000f78001e0078000080fa00dc
:1052d000000006000600fa00100798002107980059
:1052e000214180001e009000008f4000004180009e
:1052f0000080e800a0020700004180009e007800c6
:1053000011009800204180009e007800808f50009e
:1053100005003100004180008080e800f0408000fe
:105320006302070004003700004180008080e8002d
:10533000e04080005e0207002e0090000000e000c8
:1053400005003200004180006c00400080007800c1
:105350002e009000560207000080fa0000000600b0
:105360000200fa002500370011028000f0f12f0042
:10537000008060000050a0001002880000000000c3
:1053800000000000b0a5800030009000000f780001
:105390009e0078006c8040007702070011028000b8
:1053a000f0f12f0000806000100288000000000073
:1053b0001e80e800700207001e007800b008900010
:1053c00010418000808f5000030036001e007800de
:1053d00030089000104188001e81e8001e0078000f
:1053e000300890006a00b9008000780080482100f1
:1053f00000804000820078000f02070080a5800036
:105400000000e000d8ff3a000080fa00000006002b
:105410000400fa0086f407003141800001005000ca
:105420004041880049003700204180000000e8002a
:1054300020418800404180000000e9004041880090
:10544000204180000000e00039003a00e140800087
:10545000010f7800f0408000e04088009e00780056
:10546000f140880033003700e040800030009000b9
:1054700030009000100798001e00900090009000ef
:1054800020418000808f50002f003e0011028000dc
:10549000f0f12f00008060000050a0001002880092
:1054a00000000000000000001e0090000080e800e6
:1054b000310207001e009000200890000000e0006c
:1054c000030032001e0090006c0040002a0207001a
:1054d00011028000f0f12f000080600010028800af
:1054e000000000001e009000b008900010418000f5
:1054f000808f5000030036001e009000300890009e
:10550000104188001e0090000081e8001e009000fd
:10551000300890006a00b9008000780080482100bf
:105520000080400082007800c301070001003700be
:1055300000000000e0408000100078000000e00063
:10554000c9ff3a0001003700000000004041800020
:105550000000e000b4ff3a002041800030418800a4
:105560000080fa00000006000200fa007cff07003d
:10557000a7ff070006003700104180000000e00090
:105580002c003200104180000000e900104188002a
:10559000104180006a00b900800078008048210036
:1055a00000804000100078000000e000f2ff3200b0
:1055b000104180006a00b900800078008048210016
:1055c000008f40001e0078001000900090009000b6
:1055d0001e007800110098001e00780090009000d6
:1055e0001e01780064004100808f500005003a00e1
:1055f0001e00780010009000900090001e007800bf
:10560000110098001e0078001000900030009000fb
:1056100000418800004180001001780000418000b6
:10562000c00890000041800002000100000000005e
:1056300001003700000000000080fa0000000600b2
:105640000200fa000000eb00000f780007003700ae
:105650001e0078006a00b9008000780080482100b0
:1056600000804000540107001e0fe8001e00780073
:10567000e10f5000f6ff3600c04921004e0107003f
:10568000604a21004c010700004b21004a0107003d
:10569000c0492100e0408800604a2100f0408800b5
:1056a0000080fa00000006000600fa0020079800bb
:1056b0002e009000300090003000900010079800fd
:1056c0001e0090006c004000ab0107001e0090001f
:1056d0006c00400080007800004b2100560107005c
:1056e0001e009000b008900000418000300890003b
:1056f000808f50000300390010002000000f780058
:10570000020037000000eb00000f78001e00780058
:105710000080fa00000006000a00fa004007980026
:105720000000eb002007980066f30700704180003e
:105730000000e00001003a009c000700a141800049
:105740004e009000008060000000e00060003a0021
:105750004e0090000000e0000d003200f06b84006d
:10576000ce00900000804000400798004e0090005e
:1057700061006000004078000004e0000400320096
:105780004e0090000000a1000080e8004007980053
:105790004e0090000000e0004d003200804180008b
:1057a000ce009000808f500049003e00a082200073
:1057b0001007980051418000010f78000400370065
:1057c0009e007800110798001e007800100f7800e6
:1057d0001e007800900090004e009000808f5000d6
:1057e000040031001e007800100078000000e00086
:1057f000f3ff3a00704180009e007800808f5000d7
:10580000330032001e00900090007800f06b84009e
:1058100000804000200798001e007800900078006b
:105820001e009000010878001e0078009000900093
:105830004e00900080805000f06b8400000040001b
:10584000808f50000e0036004e0090001e00400079
:10585000300798001e007800900090004e009000e5
:10586000808050003e009000110098001e007800db
:10587000ce009000110098003e00900082000700ca
:10588000814180001e0078001000900000805000d0
:10589000804188008141800090418000808f5000cd
:1058a0000200310080418000904188001e00780095
:1058b00090009000a0418000810070001e007800e0
:1058c000110098001e0078008000eb0001087800ad
:1058d00002f307002e0090000080fa00000006008e
:1058e0000600fa0020079800ae009000010f780033
:1058f0002e0090000000e0001f003200f06b8400da
:105900000000ea001e0f40009e007800110798007a
:105910001e00900090009000a04180000080600078
:105920000000e000140032001e009000100078001b
:105930000000e00010003a001e009000900090006f
:10594000a04180000080ea00808060001e0090007e
:1059500011009800dbf207001e00900090009000fc
:105960008041800000804000804188001e0090003f
:1059700045000700d9f207000080fa000000060089
:105980000000fa00804180000080fa00000006005c
:105990000000fa00904180000080fa00000006003c
:1059a0000000fa000080fa00000006000800fa007b
:1059b00000c020001007980080832000000f7800ae
:1059c0001e00780061006000004078000004e000e4
:1059d000070032001e0fe8001e00a1001e0090000c
:1059e0009e00500080832000008040001007980037
:1059f0009e007800210798002e00900050418800fa
:105a00002c28ef00ae0090001e009000008f400098
:105a1000f06b84001e0f10001e00a1001e00780015
:105a200070418800704180008000eb0011009800f8
:105a3000704180008000eb0001087800ae0090000b
:105a4000310798003e0090009e0010003e0090003c
:105a500011009800714180003e009000010878001c
:105a60003e00900010009000904188003e009000a1
:105a7000100090008041880000002800a0418800ac
:105a80000080fa00000006000600fa0020079800d7
:105a9000a0822000000f7800020037001e0078006e
:105aa000100f78001e007800900078002e00900003
:105ab000808f5000f9ff39009e0078001107980090
:105ac0001e007800100090009e0090008080400032
:105ad0002e009000808f500009003a001e007800d0
:105ae000900090002e0090001000900080804000f8
:105af0001e007800110098009e0078002107980091
:105b0000ae009000110798002e0090001000900049
:105b10009e009000808040001e00780010007800f9
:105b2000808f500017003a001e0078009000780027
:105b300070418000808f50000e0032002e009000d7
:105b4000900090001e007800100078001000900077
:105b5000808040002e009000110098001e00780008
:105b600010007800900078002e0090000108780066
:105b700008003700714180002e0090000108780075
:105b8000040037001e007800900078002e0090007e
:105b9000010878002e0090009e007800808f500051
:105ba000030032001e007800ae009000010878006b
:105bb0000080fa00000006000200fa00000f7800e2
:105bc0009e00780064804000800078001e0078000d
:105bd000110098001e0078008080eb0021009800e2
:105be0009e00780064804000800078001e007800ed
:105bf000310098009e0078006480400080007800aa
:105c00001e007800410098001e0078008000eb0024
:105c1000010878000080fa00000006000200fa0087
:105c2000000f78001e0078008000eb004100980013
:105c30000080fa00000006000600fa001007980035
:105c4000210798001e00900090009000010f78003e
:105c50002e0090009e007800110098001e00780031
:105c6000a00090002e009000210098001e007800f7
:105c700020009000ae009000110098001e007800f7
:105c8000ae009000210098002e0090009e00900031
:105c9000410098001e009000100078008000e8008d
:105ca0001e009000010878000080fa000000060045
:105cb0000800fa0020079800310798003e00900085
:105cc00090007800110798001e009000e10f40003e
:105cd00004003a002e009000c0009000010f7800f0
:105ce0000d0037002e00900064004000000f780087
:105cf000030037001e00780090009000010f78002c
:105d00001e00780010009000900078001e009000a7
:105d1000808f5000f7ff36001e0078009000900042
:105d20003e009000110098003e009000100090008e
:105d3000be009000210098003e0090009e00780078
:105d4000210098001e007800be009000110098000d
:105d50003e009000ae009000410098002e009000a0
:105d6000100078008000e8002e0090000108780004
:105d70000080fa00000006000400fa0010079800f6
:105d80001e009000c0009000010f78001e009000df
:105d9000100090009e009000a1009000210098004b
:105da0001e009000200090009e0090009100900046
:105db000110098001e007800900090001e009000d6
:105dc000808f500004003a001e009000a000900058
:105dd0001e007800110098001e0090008000eb006b
:105de000410098001e007800100078008000e90053
:105df0001e007800010878001e007800100078006e
:105e00000080fa00000006002a00fa00201798001f
:105e10003117980042179800e400470042d4280048
:105e20000f000900b2187800be109000110798000a
:105e30002e1090001e019000020878002e10900095
:105e40000080e800201798002e1090008000eb00e2
:105e5000010878002e1090000080e80020179800bc
:105e60002e1090008000eb00010878002e109000aa
:105e70000080e80020179800ce1090002e109000af
:105e8000010878002e1090000080e800201798008c
:105e90000000eb00000f78000a0037001e007800b9
:105ea0000000400000004700a00090002e1090006d
:105eb000010878002e1090000080e800201798005c
:105ec0001e0fe8001e007800ef0f5000f3ff3600b1
:105ed000210280002e109000010878002e10900002
:105ee0000080e8002017980034c0bf008080fb00cd
:105ef0002e109000010878002e1090000080e8001d
:105f0000201798002e1090008000eb000108780008
:105f10002e1090000080e800201798002e109000ae
:105f20000080fa00000006000000fa0018000700d8
:105f300000408000900778004f007800b041880052
:105f40003400f9004400f9003200f9003600f9008d
:105f50004f0778004f06be004f05be004f04be003d
:105f60004f03be004f02be004f01be004f00be00f7
:105f70004200f90000000600100020000080fa0036
:105f8000000006000000fa000080fa000000060091
:105f90000400fa00f07c200001002000008fbe0009
:105fa0000421ef000021ef001e0078001008880097
:105fb00021058000f0ff28000080600000c0a000e4
:105fc000200588008460a9009460a8000481a800ce
:105fd00004a1a90005e1a8000080fa000000060065
:105fe0000000fa0011028000f0f12f000080600034
:105ff0000050a00010028800000000000000000017
:10600000b04180000000e800b04188000080fa0044
:10601000000006000000fa00b04180000000e90026
:10602000b0418800b04180000000e00005003a0067
:1060300011028000f0f12f00008060001002880043
:10604000000000000080fa00000006000200fa00d4
:10605000000f7800201680006400600000f0a700a8
:106060000000ea000000e9004f00de000040780078
:106070000080fb00610060004200dd00211680000e
:106080000120a100010070002016880000f421000a
:10609000b6ef0700efff37000200fa00000f7800ac
:1060a000601680006800600000f0a7000000ea00b1
:1060b0000000e9004f00de00004078000080fb0097
:1060c000610060004300dd00611680000130a10026
:1060d00001007000601688001e007800a3ef070022
:1060e000efff37000000fa005b000700c482a80041
:1060f000201680004400de00614060000080fb004c
:10610000610060004200dd00211680000120a10036
:106110000100700020168800cc62a8006016800084
:106120004300de00614060000080fb006100600011
:106130004200dd00611680000120a1000100700016
:10614000601688008002eb000002eb008001eb008b
:10615000020820008000eb006002230068ee0700c8
:106160008002eb000002eb00430620000208200042
:106170008000eb00c004230061ee0700aaf00700d6
:106180000000eb000080fa00000006000000fa00aa
:1061900000102300203a88007027ef007227ef00dc
:1061a0007427ef001200200080072000a1092000c2
:1061b0003374200080497800814978008249780052
:1061c0000001eb0060042000710520002374200012
:1061d0008049780081497800824978000080fa007f
:1061e000000006000000fa00c422ef00cc22ef00fd
:1061f000300020000016880030ff2f004016880075
:106200006820ef006a20ef00c622ef00ce22ef00e8
:106210002c23ef000080fa00000006000000fa00c6
:10622000d1fc07000080fa00000006000400fa001c
:10623000000f78001107980011028000f0f12f0084
:10624000008060000050a0001002880000000000e4
:1062500000000000ffff37000000fa00cbff07003e
:10626000e0ff07000080fa00000006004200f8008e
:10627000801f78000002200010028800811f780033
:10628000829fbe00849fbe00869fbe00889fbe0086
:106290008a9fbe008c9fbe008e1f78003600f800db
:1062a0003200f8004400f8003400f800b0418000eb
:1062b000801f7800004080000f087800381402002a
:1062c0000000000000408000900778004f00780038
:1062d000b04188003400f9004400f9003200f900b0
:1062e0003600f9004f0778004f06be004f05be008c
:1062f0004f04be004f03be004f02be004f01be0060
:0c6300004f00be004200f9000000060043
:020000040000fa
:10630c008814000032000000000000001c0800008f
:10631c000e000000000000003814000050000000c7
:10632c0000000000000800001c000000000000003d
:10633c0038080000000c0000000000002a080000d3
:10634c000c000000000000003608000002000000f5
:0c635c0002000000ef0000000000000044
:020000040000fa
:020000040001f9
:0407f800bff9000045
:020000040000fa
:020000040001f9
:0407fc007f3d00003d
:00000001FF
