:020000040000fa
:08000000020c040000000000e6
:020000040000fa
:10000800560d0000560d0000560d0000560d00005c
:10001800560d0000560d0000560d0000560d00004c
:10002800560d0000560d0000560d0000d60c0000bd
:10003800560d0000560d0000560d0000560d00002c
:10004800560d0000560d0000560d0000060d00006c
:100058001a0d0000560d0000560d0000560d000048
:10006800560d0000560d0000560d0000560d0000fc
:10007800560d0000560d0000560d0000560d0000ec
:10008800560d0000560d0000560d0000560d0000dc
:10009800560d0000560d00002e0d0000420d000008
:1000a800560d0000560d0000560d0000560d0000bc
:1000b800560d0000560d0000560d0000560d0000ac
:1000c800560d0000560d0000560d0000560d00009c
:1000d800560d0000560d0000560d0000560d00008c
:1000e800560d0000560d0000560d0000560d00007c
:1000f800560d0000560d0000560d0000560d00006c
:10010800560d0000560d0000560d0000560d00005b
:10011800560d0000560d0000560d0000560d00004b
:10012800560d0000560d0000560d0000560d00003b
:10013800560d0000560d0000560d0000560d00002b
:10014800560d0000560d0000560d0000560d00001b
:10015800560d0000560d0000560d0000560d00000b
:10016800560d0000560d0000560d0000560d0000fb
:10017800560d0000560d0000560d0000560d0000eb
:10018800560d0000560d0000560d0000560d0000db
:10019800560d0000560d0000560d0000560d0000cb
:1001a800560d0000560d0000560d0000560d0000bb
:1001b800560d0000560d0000560d0000560d0000ab
:1001c800560d0000560d0000560d0000560d00009b
:1001d800560d0000560d0000560d0000560d00008b
:1001e800560d0000560d0000560d0000560d00007b
:0801f800560d0000560d000039
:020000040000fa
:10020800560d0000560d0000560d0000560d00005a
:10021800560d0000560d0000560d0000560d00004a
:10022800560d0000560d0000560d0000d60c0000bb
:10023800560d0000560d0000560d0000560d00002a
:10024800560d0000560d0000560d0000060d00006a
:100258001a0d0000560d0000560d0000560d000046
:10026800560d0000560d0000560d0000560d0000fa
:10027800560d0000560d0000560d0000560d0000ea
:10028800560d0000560d0000560d0000560d0000da
:10029800560d0000560d00002e0d0000420d000006
:1002a800560d0000560d0000560d0000560d0000ba
:1002b800560d0000560d0000560d0000560d0000aa
:1002c800560d0000560d0000560d0000560d00009a
:1002d800560d0000560d0000560d0000560d00008a
:1002e800560d0000560d0000560d0000560d00007a
:1002f800560d0000560d0000560d0000560d00006a
:10030800560d0000560d0000560d0000560d000059
:10031800560d0000560d0000560d0000560d000049
:10032800560d0000560d0000560d0000560d000039
:10033800560d0000560d0000560d0000560d000029
:10034800560d0000560d0000560d0000560d000019
:10035800560d0000560d0000560d0000560d000009
:10036800560d0000560d0000560d0000560d0000f9
:10037800560d0000560d0000560d0000560d0000e9
:10038800560d0000560d0000560d0000560d0000d9
:10039800560d0000560d0000560d0000560d0000c9
:1003a800560d0000560d0000560d0000560d0000b9
:1003b800560d0000560d0000560d0000560d0000a9
:1003c800560d0000560d0000560d0000560d000099
:1003d800560d0000560d0000560d0000560d000089
:1003e800560d0000560d0000560d0000560d000079
:0803f800560d0000560d000037
:020000040000fa
:10180000010000002f0e22000e7f22000e01880032
:1018100000000000000020000000e0000200320094
:10182000000120002002880014000700a10007002a
:101830000000e00003003a00a01f23000100200088
:10184000020037000000200001002000810f70001e
:101850000100320014000700000020000000e0003a
:101860000200320000000200000000006e310200a1
:10187000000000000040da000000fe004440a90023
:10188000200820000000e0000300320000002000db
:10189000a00188004440a800000006008a1f7800cc
:1018a0008b1f7800000006009101880080047800fa
:1018b0000000eb001a003700e284440032a0b400bc
:1018c0009905ba00e284440032a0b4009906ba0037
:1018d000e284440032a0b4000006eb00476fde0053
:1018e000fd07b200636ce10003003a00ebff070064
:1018f0000000eb000a003700606ce10004003a00d1
:10190000005deb008b05e900fdff3e0004003700a1
:101910006168e100010032000086eb000b00070067
:1019200019c7ba001905ba000e04e00003003a0016
:101930000a00e000e0ff3a0000000600fe07b200e7
:101940009e0188008a047800f5ff3700395dba00ef
:101950008b05e9000c003200295dba008b05e90017
:10196000080032000c00e00003003a00e28444006a
:1019700032a0b400f5ff370019ddba008b05e9008d
:10198000faff3a008904e800e184440032a0b40080
:101990000000060000000000000000000000000041
:1019a0000000000000000000000000003600f80009
:1019b000809fbe00829fbe00849fbe00869fbe00a7
:1019c0003400f80000002000a00188000000fa00a8
:1019d0008460a900e90307000000e0000300320072
:1019e000aa31020000000000000000000080fa00a0
:1019f0003400f9004f03be004f02be004f01be008d
:101a00004f00be003600f900004006003400f80028
:101a1000881f780008002000a80188004f04780083
:101a20000000fa008560a9000080fa003400f90087
:101a3000004006003400f800881f780008002000ed
:101a4000a80188004f0478000000fa008580a900f2
:101a50000080fa003400f900004006003400f8006d
:101a6000881f780008002000a80188004f04780033
:101a70000000fa0087c0a9000080fa003400f900d5
:101a8000004006003400f800881f7800080020009d
:101a9000a80188004f0478000000fa0087e0a90040
:101aa0000080fa003400f900004006000040da002f
:101ab0000000fe00000005006022b80006022000c1
:101ac0000000d0008180d2000482d2008582d20042
:101ad0000000a0000202520083825a00030031007d
:101ae0000202420083824a000000a1000603e900ce
:101af000f3ff3a000000060009003700304278008a
:101b0000b1417800834f52000400320010002000e1
:101b1000060031000080eb00000006000201e90031
:101b20000200e000f5ff3a000000eb0000000600b4
:101b30008001780002003700b15978000201e90005
:101b40000200e000fcff3a0000000600800178007f
:101b500002003700815978000201e9000200e0002c
:081b6000fcff3a000000060042
:020000040000fa
:101b680041200000546100006b6500002e2e00002b
:101b78002e61000061610000616100006161000088
:101b88006161000061610000616100006161000045
:101b98006161000061610000616100006161000035
:101ba8000d0a0000000900004220000054610000f6
:101bb8006b6500002e2e00002e620000626200009d
:101bc80062620000626200006262000062620000fd
:101bd80062620000626200006262000062620000ed
:101be80062620000620d00000a000000111100008e
:101bf8002222000033330000444400005555000001
:101c080066660000777700008888000099990000d0
:101c1800aaaa0000bbbb0000cccc0000dddd0000a0
:101c2800eeee0000cecd0000acab00004944000051
:101c38004c45000000a50000a5a50000a5a50000d2
:101c4800a5a50000a5a50000a5a50000a5a5000064
:101c5800a5a50000a5a50000a5a50000a5000000f9
:041c68000400000074
:020000040000fa
:101c6c001000fa00200798003107980042079800ee
:101c7c0053079800640798007507980060022000cd
:101c8c00380f0700000f78001e0078000000e000fd
:101c9c000e0032004e00900000004000310f070093
:101cac00800078001e007800410898001e00780023
:101cbc00400890000000e00004003a001e0078008c
:101ccc009a0f07000000eb00000f78001e00780050
:101cdc000000e000120032004e0090008000eb008b
:101cec000001eb00821f78009e0378007e039000b9
:101cfc00ee0290005e0290000001be00be0090005b
:101d0c002e0090000b0007008f87e9001e00780062
:101d1c007200070010002000100798000200370026
:101d2c000080eb00100798001e0090000080fa0065
:101d3c00000006001400fa002007980031079800f4
:101d4c00420798005307980064079800750798009d
:101d5c00060f9800170f98004e00900000004000ee
:101d6c00800078001e089000400890000101780067
:101d7c00510a200072ff07001e089000c008900056
:101d8c00110798001e089000c00890004e019000aa
:101d9c00f0ff270000004100000040008080400060
:101dac001e089000710898003e0090000000e000b2
:101dbc00190032000000eb00000f78000d00370016
:101dcc003e0090001e004000904078001e089000dd
:101ddc001e0040007a004000014878003e00900050
:101dec001e004000104078000004e00005003200a6
:101dfc001e0fe8001e007800e30f5000f0ff3600c5
:101e0c0001003700000000001e0890008040eb002d
:101e1c0051589800030037001e0890008040eb00da
:101e2c00215898007e009000e30f5000020036000d
:101e3c0030002000700798001e089000fe009000f3
:101e4c00310898001e0890000080e800061007007a
:101e5c001e0890006c004000031007001e08900044
:101e6c009e089000410098007e009000e400100055
:101e7c001e089000610098001e0890009e089000bb
:101e8c00110898001e0990006000b800001198001d
:101e9c00111198001e0890008040eb0041609800e2
:101eac006e019000ae0090001e00900069100700bb
:101ebc00800078001e089000010878000e08900041
:101ecc000000e000030032000e0890009e08900015
:101edc00010878000080fa00000006000200fa00f9
:101eec00000f7800d1100700404080000000e8008f
:101efc0040408800004080000000e00007003a00ed
:101f0c009e0078000140880040408000e10f5000a6
:101f1c000d003a002a0407000b00370070408000c7
:101f2c000000e00008003a0000408000b00890007b
:101f3c001e00780030089000808f500002003e0098
:101f4c009e00780001408800b04080000000e8004e
:101f5c00b04088001e007800b008900060408000ff
:101f6c00808f5000030036001e007800300890006f
:101f7c00604088001e81e8001e0078003008900048
:101f8c006a00b90080007800c04321000080400046
:101f9c0082007800bb0f0700b11007007040800072
:101fac000000e0000900320000408000b008900002
:101fbc001e00780030089000808f50000300310024
:101fcc00aa31020000000000000000000080fa00ae
:101fdc00000006000400fa00100798009310070098
:101fec001e0090000000e00002003a00004080005b
:101ffc00010037001e009000000f78001e80e800e2
:10200c00f00f07001e007800200890000000e00090
:10201c00030032009e0078006c804000e90f07003e
:10202c00b04080000000e800b04088000040800014
:10203c009e007800808f500008003a001e80e80057
:10204c0080007800204821008e0f0700304080006f
:10205c000000e80030408800060037004040800057
:10206c000000e900404088001e00780008040700ca
:10207c00100407007a100700704080000000e00098
:10208c0007003200004080009e007800808f5000d6
:10209c0003003a00aa31020000000000000000001a
:1020ac000080fa00000006000c00fa0040079800bf
:1020bc00510798000000eb00000f7800b0010700fa
:1020cc0051408000110798004e009000900078005d
:1020dc005e00900000804000200798004e009000a9
:1020ec00900078001e009000808f50000c0036008d
:1020fc004e009000900078002e009000808f5000d1
:10210c0012003600ae0090001e009000808f500030
:10211c000e00360010002000000f78000b00370076
:10212c004e009000900078002e009000808f5000a0
:10213c0004003e00ae0090001e009000808f500006
:10214c000200360010002000000f78004e009000b6
:10215c00ae009000010878001e0078000000e0003e
:10216c0005003200ae0090001e0090000080500070
:10217c008000eb00d50507008701070030079800a9
:10218c003e0090000000e00003003a00aa3102007b
:10219c0000000000000000000080fa0000000600b3
:1021ac000400fa00100798000000eb00000f780004
:1021bc001e0090000000e0000600320070010700d5
:1021cc008000eb001e009000c005070072010700a4
:1021dc00000f78001e0078000000e00003003a00b9
:1021ec00aa31020000000000000000000080fa008c
:1021fc00000006000600fa00200798000b100700ec
:10220c002e0090000000e00002003a000040800028
:10221c00010037002e009000000f78001e0078009f
:10222c00b0089000110798000d1007001e009000d8
:10223c000080fa00000006000800fa003007980041
:10224c000000eb00000f78003e0090000000e00062
:10225c0002003a0000408000010037003e00900070
:10226c00100798001e009000b008900021079800fd
:10227c002e0090000080fa00000006000c00fa000e
:10228c0040079800510798000000eb00000f780001
:10229c005e009000e30f500002003600300020007a
:1022ac0050079800e10f07004e0090000000e0007e
:1022bc0002003a0000408000010037004e00900000
:1022cc00100798001e009000b0089000210798009d
:1022dc00ae0090005e009000808f500048003200ed
:1022ec00de0090002e009000808f50000c00360015
:1022fc00004080009e009000808f50000e00320045
:10230c0000408000b00890005e009000808f50006c
:10231c0009003e0010002000000f78000600370076
:10232c00004080009e009000808f500002003a0018
:10233c0010002000000f78001e009000b0089000e4
:10234c00310798001e009000de00900031089800c4
:10235c001e009000600090000000e00004003500ba
:10236c005e009000e40010001e00900061009800d8
:10237c001e009000500190003e0090006a00b900d1
:10238c0080007800c043210000804000800f510085
:10239c0015003a001e0090000080e800090f0700ad
:1023ac001e009000b008900060408000808f5000ac
:1023bc00030036001e00900030089000604088003a
:1023cc001e0090000081e8001e0090003008900074
:1023dc006a00b90080007800c043210000804000f2
:1023ec0082007800a70e07001e0078000000e000b5
:1023fc0003003200aa3102000000000000000000bf
:10240c00970f07000080fa00000006000400fa0095
:10241c0010079800850f07001e0090000000e000d8
:10242c0002003a0000408000010037001e009000be
:10243c00000f78001e80e800e20e07001e007800f6
:10244c00200890000000e000030032009e0078009d
:10245c006c804000db0e07001e80e80080007800d6
:10246c00c0482100870e07001e00780040609000d5
:10247c00e14f500003003a001e0078008040eb0052
:10248c0041609800760f0700704080000000e0006b
:10249c0003003200650f070006030700700f0700ea
:1024ac00004080009e007800808f50000e003a00a3
:1024bc00704080000000e00004003200aa310200ed
:1024cc0000000000000000000700370061a480003d
:1024dc0040408000808f500002003a000028ef003e
:1024ec0001003700960107000080fa00000006008a
:1024fc000600fa00200798000000eb00000f78009f
:10250c00ae009000110798001e009000d0009000c3
:10251c00c0482100808f50000b003a001e00900034
:10252c00a008900080472100808f500006003200e8
:10253c001e009000200890000000e00002003a000d
:10254c0010002000000f78001e0078000080fa00b8
:10255c00000006000400fa00100798009e0090008e
:10256c00010f7800004080009e007800808f5000a2
:10257c00250032001e0078000000e000220032002e
:10258c002a0f07001e007800d9ff07000000e000aa
:10259c001c0032001e80e8008a0e07001e00780026
:1025ac00b008900060408000808f5000030036001f
:1025bc001e00780030089000604088001e81e80002
:1025cc001e007800300890006a00b9008000780086
:1025dc00c04321000080400082007800290e0700d3
:1025ec001e007800b0089000004080003008900079
:1025fc00808f500003003900aa3102000000000057
:10260c0000000000160f07000080fa000000060012
:10261c000800fa00300798000000eb00000f78006b
:10262c00be009000110798000000eb0020079800f6
:10263c001e009000aeff07000000e00026003200f4
:10264c00e04080000000e0001e003a001e009000f8
:10265c00b00890000040800030089000808f50003f
:10266c000200390010002000000f78001e009000be
:10267c000080e800530e07001e009000b008900088
:10268c0060408000808f5000030036001e009000d8
:10269c0030089000604088001e0090000081e80027
:1026ac001e009000300890006a00b900800078008d
:1026bc00c04321000080400082007800f10d07002b
:1026cc00050037001e0090006c0040008000780070
:1026dc0080472100eb0d07001e0078000080fa00f7
:1026ec00000006000200fa00a58120000002eb00a9
:1026fc008001eb0032072000a1e12800007d2100c1
:10270c0057fd0700000f78001e007800e10f500005
:10271c000d003a0011028000f0f12f0000806000e3
:10272c000050a00010028800000000000000000013
:10273c000080eb00c0408800100020007040880032
:10274c000a28ef008b0e07000080fa00000006003c
:10275c000000fa0011028000f0f12f0000806000f0
:10276c000050a000100288000000000000000000d3
:10277c000e28ef00960e07000080fa0000000600fd
:10278c000000fa00e04080000000e800e040880013
:10279c000080fa00000006000600fa000000eb00c2
:1027ac00000f78000000eb00100798009f0e070048
:1027bc00e04080000000e900e0408800e04080003c
:1027cc000000e00045003a00404080000000e000be
:1027dc004200320021003700f0a38000300090004e
:1027ec00000f78009e0078006c804000f50d07000b
:1027fc001e80e800f30d07001e007800b008900062
:10280c0060408000808f5000030036001e0078006e
:10281c0030089000604088001e81e8001e0078009f
:10282c00300890006a00b90080007800c043210095
:10283c000080400082007800920d07001e00780096
:10284c00b00890000040800030089000808f50004d
:10285c00020039001000200090408800c0a38000c6
:10286c000000e000dcff3a001e0078000000e000f1
:10287c00010032000f020700814080002107980000
:10288c002e0090000000e0000c0032003800070021
:10289c000000e00002003200100020009040880090
:1028ac002e0090000000e900200798002e009000f8
:1028bc000000e000f5ff3a001028ef009040800087
:1028cc000000e00005003200100020001007980006
:1028dc00aa3102000000000000000000600e07009a
:1028ec001e0090000080fa00000006000200fa00b2
:1028fc004e0e070051408000010f7800580e070063
:10290c001e0078000080fa00000006000400fa00a7
:10291c000000eb00000f7800514080001107980078
:10292c001e0090000080fa00000006000000fa0073
:10293c00404080000080fa00000006000400fa000d
:10294c00100798001e0090000000e00002003a0002
:10295c0000408000010037001e009000000f78003e
:10296c009e0078007a8040000080fa00000006008b
:10297c000a00fa000000eb00000f7800e040800035
:10298c000000e00062003a00504080000000e800c7
:10299c00100798009e009000514088001e00900087
:1029ac000000e0000a003a00114080002107980066
:1029bc002040800010408800ae009000214088002c
:1029cc00a04080000000e800a0408800b90107008a
:1029dc00c04080009e009000808f50003c00390069
:1029ec00010037000000000010408000100078004b
:1029fc000000e00003003a000080eb00c0408800bb
:102a0c003300370010408000300090003000900000
:102a1c00300798003e00900090009000410798000d
:102a2c009e0090004e009000808f500003003100fb
:102a3c00ce009000c1408800250037003e00900079
:102a4c000080e8005f0d07003e0090002008900019
:102a5c000000e000030032003e0090006c004000db
:102a6c00580d07003e009000b008900060408000b8
:102a7c00808f5000030036003e009000300890001c
:102a8c00604088003e0090000081e8003e0090000d
:102a9c00300890006a00b90080007800c043210023
:102aac000080400082007800f60c07003e00900089
:102abc00b00890000040800030089000808f5000db
:102acc00c8ff390010002000000f7800c6ff370047
:102adc0000408000300890006a00b9008000780047
:102aec00c04321000080400010007800e10f50002e
:102afc000200360010002000000f7800804080009b
:102b0c000000e00006003a00590e070004003700f0
:102b1c00804080000000e80080408800540e0700d0
:102b2c00904080000000e000020032001000200005
:102b3c00000f78001e0078000080fa0000000600ec
:102b4c000600fa00e04080000000e00003003200c4
:102b5c001000200090408800390037001228ef0048
:102b6c000040800070089000100798001e00900034
:102b7c00740050001007980042012000f1e1280079
:102b8c001e009000d9fb07000000e000040032009a
:102b9c0000408000fa00400000408000370e070023
:102bac0061408000010f7800010037001e0fe90022
:102bbc001e0078006a00b90080007800c043210034
:102bcc0000804000100078000000e000f7ff3200a9
:102bdc001e0078006a00b90080007800c043210014
:102bec0000804000200798002e00900010009000fc
:102bfc00900090002e009000110098002e00900084
:102c0c00900090002e00900064004000808f5000d7
:102c1c0005003a002e0090001000900090009000eb
:102c2c002e009000110098002e00900010009000d3
:102c3c0030009000004088009e00780061408800c1
:102c4c000080fa00000006000400fa00000f780073
:102c5c0011079800004080006c0040008000780054
:102c6c001e007800a50c0700110020001e0090002b
:102c7c00160307000080fa00000006000600fa00a8
:102c8c00000f780011079800220798000040800080
:102c9c009e00900001f0a0006100980000408000b0
:102cac006c004000800078001e007800750c070056
:102cbc00110020002e009000040307000080fa0091
:102ccc00000006000600fa00200798002e00900075
:102cdc003000900030009000100798001e0090000b
:102cec006c004000b70c0700e04080000000e000e2
:102cfc0016003a001e0090000080e800b10c07009e
:102d0c001e009000b008900060408000808f500042
:102d1c00030036001e0090003008900060408800d0
:102d2c001e0090000081e8001e009000300890000a
:102d3c006a00b90080007800c04321000080400088
:102d4c00820078004f0c0700050037001e00900031
:102d5c006c0040008000780080472100490c07007f
:102d6c001e009000b00890000040800030089000d9
:102d7c00808f50000500360010002000000f7800f6
:102d8c001000200090408800020037000000eb008b
:102d9c00000f78001e0078000080fa00000006008a
:102dac000600fa0010079800210798002e009000ea
:102dbc008000780001f0a0001e009000010878004f
:102dcc001e00900030009000000f78001e00900054
:102ddc007c0c07001e80e8007a0c07001e007800af
:102dec00b008900060408000808f500003003600d7
:102dfc001e00780030089000604088001e81e800ba
:102e0c001e007800300890006a00b900800078003d
:102e1c00c04321000080400082007800190c07009c
:102e2c001e007800b0089000004080003008900030
:102e3c00808f500002003600100020009040880067
:102e4c000080fa00000006000200fa00000f780073
:102e5c00f60c0700a14080001e00780001087800e5
:102e6c00514080001e00780011009800fc0c0700f7
:102e7c000080fa00000006000200fa00000f780043
:102e8c00a14080001e0078000108780051408000ad
:102e9c001e007800110098000080fa000000060067
:102eac000a00fa003007980041079800df0c070071
:102ebc0051408000110798003e00900010009000d7
:102ecc009e00900000805000200798004e0090005b
:102edc0010007800e10f400003003a000000eb0006
:102eec00000f7800220037003e0090009000780020
:102efc00a0408000808f5000080032003e009000ff
:102f0c00900090001e009000808f500003003e0047
:102f1c0010002000000f7800150037004e009000c4
:102f2c00900078002e009000808f50000b0036002f
:102f3c004e009000900078002e0090008080500091
:102f4c004e009000010878003e009000caff070078
:102f5c000000eb00000f7800050037004e009000d9
:102f6c008000eb000108780010002000000f7800b2
:102f7c00bb0c07001e0078000080fa000000060061
:102f8c000000fa0010002000904088000080fa0039
:102f9c00000006000200fa00000f7800260007006f
:102fac00e0a18000e10f500003003600aa310200be
:102fbc000000000000000000290d0700f7ff37009b
:102fcc000200fa000000eb00000f78000700370049
:102fdc001e0078006a00b90080007800c043210010
:102fec0000804000870b07001e0fe8001e007800d1
:102ffc00e30f5000f6ff360040462100810b07001e
:10300c00e04621007f0b0700804721007d0b070065
:10301c00204821007b0b0700c0482100790b0700da
:10302c004046210010408800e046210020408800e6
:10303c000080fa00000006000200fa000f003700c2
:10304c007a0c070040a4800030009000000f78003c
:10305c001e80e800db0b0700404080000000e90008
:10306c0040408800304080000000e900304088007b
:10307c007b0c07001e007800050007003040800024
:10308c000000e000eeff3a000080fa0000000600ad
:10309c000200fa00000f78001e0078004008900033
:1030ac00a20a07001e007800a00a07000080fa00a0
:1030bc00000006000200fa001040800010007800aa
:1030cc000000e00003003a000080eb00c0408800e4
:1030dc000700370010408000300090003000900056
:1030ec00000f78001e00780010009000c04088008f
:1030fc000080fa00000006000200fa000040800088
:10310c00e0009000010f780000408000014080003a
:10311c00b1089000e4801000610098001e00780057
:10312c000080fa00000006000800fa002007980052
:10313c00310798003d0c0700004080009010900073
:10314c0000109000e00f5000e08f58000c003a0087
:10315c000040800011c0b300416098003e00900018
:10316c000000e00006003200110020003e0090003c
:10317c00d6010700aa310200000000000000000088
:10318c00370c0700290c070000408000001190004c
:10319c0090119000028fbe001e00be00e00f500088
:1031ac00e08f58000f0032002e0090000000e0006d
:1031bc0005003200024080006000b8000011980049
:1031cc001111980007003700024080000082eb00cc
:1031dc008082eb003e004200ae804a000011980055
:1031ec0011119800004080008040eb004160980075
:1031fc001b0c07001e00be000080fa000000060039
:10320c000e00fa001007980021079800320798006a
:10321c00430798005407980065079800030c0700b3
:10322c000040800040609000e24f500022003200cd
:10323c000440800004119000941190001e00900036
:10324c00ae0090000080ea008180ea0082027800e3
:10325c00030178008001780001007800838262000d
:10326c00000061008000eb00c000dd0000002000c9
:10327c000001be006128b80000017100818171005d
:10328c0002129800131298000040800011c0b30085
:10329c00416098006e0090000000e00006003200d3
:1032ac00110020006e00900088010700aa31020076
:1032bc000000000000000000e90b0700db0b07001a
:1032cc005e0090000000e00005003200004080002d
:1032dc0090109000001090005e0190000089be00dc
:1032ec000040800040609000e24f5000030032002c
:1032fc000000eb00000f780018003700044080003d
:10330c0004119000941190003e009000ce009000ab
:10331c000080ea008180ea008202780003017800d4
:10332c008001780001007800838262000000610057
:10333c008000eb00c000dd00000020000001be009a
:10334c006128b8000001710081817100021298009f
:10335c001312980010002000000f7800004080002d
:10336c008040eb0041609800bd0b07001e00780008
:10337c000080fa00000006001000fa0030079800e8
:10338c00420798005307980061079800740798004b
:10339c0010002000000f7800be009000110798006c
:1033ac00a20b07007e0090000000e0000500320038
:1033bc001e00900090109000001090007e01900074
:1033cc000089be001e0090004061900042479800aa
:1033dc001e00900021c0b300416098006e00900068
:1033ec00e20f500017003200e20f500005003e00c3
:1033fc000000e0002e003200e10f50000600320009
:10340c002c003700e30f500017003200e40f50007f
:10341c001b003200270037001e00900000119000a6
:10342c00901190004e009000de00900000007100a2
:10343c00818071001e0190000011980011119800fc
:10344c001c0037001e00900090109000001090009f
:10345c0061004000e08048001e01900000119800bf
:10346c0011119800130037001e0090004e019000bf
:10347c00de01900002109800131098000d00370028
:10348c004e409000e24f5000060032001e009000ab
:10349c004e019000de01900002109800131098006d
:1034ac00040037000000eb00000f7800010037002b
:1034bc00000000004e409000e14f50001e003a000a
:1034cc001e0090000080e800be0a07001e0090005d
:1034dc00b008900060408000808f500003003600e0
:1034ec001e00900030089000604088001e00900084
:1034fc000081e8001e009000300890006a00b900be
:10350c0080007800c04321000080400082007800d9
:10351c005c0a07001e009000b0089000004080007c
:10352c0030089000808f500003003600aa31020052
:10353c000000000000000000490b07001e0078008e
:10354c000080fa00000006001400fa004007980002
:10355c00520798006307980071079800040f9800b1
:10356c00150f980010002000000f7800ce0090007e
:10357c00110798000000eb00200798000e0890003f
:10358c000000e000050032001e009000901090003a
:10359c00001090000e0990000089be001e009000e3
:1035ac0040619000624798001e00900021c0b3005b
:1035bc00416098007e009000e20f5000170032002e
:1035cc00e20f500005003e000000e0002e0032002b
:1035dc00e10f5000060032002c003700e30f5000c2
:1035ec0017003200e40f50001b0032002700370098
:1035fc001e00900000119000901190005e00900051
:10360c00ee00900000007100818071001e0190009e
:10361c0000119800111198001c0037001e0090003a
:10362c00901090000010900061004000e080480075
:10363c001e01900000119800111198001300370022
:10364c001e0090005e019000ee01900002109800a8
:10365c00131098000d0037006e409000e24f5000a0
:10366c00060032001e0090005e019000ee019000fa
:10367c000210980013109800040037000000eb00b3
:10368c00000f780001003700000000006e40900031
:10369c00e14f50002c003a00e04080000000e000b8
:1036ac0016003a001e0090000080e800450a070052
:1036bc001e009000b008900060408000808f500089
:1036cc00030036001e009000300890006040880017
:1036dc001e0090000081e8001e0090003008900051
:1036ec006a00b90080007800c043210000804000cf
:1036fc0082007800e3090700050037001e009000e7
:10370c006c0040008000780080472100dd09070034
:10371c001e009000b008900000408000300890001f
:10372c00808f5000080036001e0890000000e0005a
:10373c00030032001e0890001100200001087800e0
:10374c0010002000904088001e0078000080fa00d5
:10375c00000006000a00fa003007980041079800a4
:10376c00be009000010f78000000eb0010079800dd
:10377c001e007800c0609000414798001e00780041
:10378c0021c0b300416098001e007800901090009a
:10379c000010900061004000e08048001e0178009d
:1037ac0000119800111198004e409000e14f50000c
:1037bc002a003a00e04080000000e00014003a00cb
:1037cc001e80e800ff0907001e007800b00890007a
:1037dc0060408000808f5000030036001e0078008f
:1037ec0030089000604088001e81e8001e007800c0
:1037fc00300890006a00b90080007800c0432100b6
:10380c0000804000820078009e0907000500370008
:10381c009e0078006c80400080007800804721007a
:10382c00980907001e007800b00890000040800046
:10383c0030089000808f5000080036004e00900039
:10384c000000e000030032004e0090001100200048
:10385c000108780010002000904088000080fa00d9
:10386c00000006000600fa00200798002e009000c9
:10387c000000e00002003a00004080000100370028
:10388c002e00900010079800680a07001e00900098
:10389c0040609000e24f500006003a001e0090007d
:1038ac008040eb004160980010002000000f780071
:1038bc00020037000000eb00000f7800680a0700d8
:1038cc001e0078000080fa00000006000800fa00d4
:1038dc00200798003107980051408000010f7800b4
:1038ec00004080000080e800b60907002e00900020
:1038fc00e10f400009003a003e0090000000e0009b
:10390c0006003200004080000080e8008000780053
:10391c00c04821005b090700180037002e009000fa
:10392c001e00400010079800004080009e00900090
:10393c00110098001e0090009e0f500005003100f1
:10394c00004080008080e800204080006b09070068
:10395c000a003700004080008080e80010408000a2
:10396c0066090700c04080009e009000808f5000c8
:10397c00020031009e009000c14088000080fa00d7
:10398c00000006000600fa001007980021079800b6
:10399c009e009000010f7800240a07001e0078009a
:1039ac00100178001e007800f00890001e007800ce
:1039bc00001090000088b9000000780080004100e1
:1039cc001e007800210098001e0078008000eb009b
:1039dc00610898001e007800900078001e007800a6
:1039ec00110098001e007800100178001e0078006d
:1039fc00700890008000e9001e0078000010900014
:103a0c000088b90000007800800041001e0078009a
:103a1c00310098001e00780080c0eb0021609800f7
:103a2c001e00780080c0eb00316098002e009000e2
:103a3c000000e0000d003a001e00780040009000ed
:103a4c000000e0000f0032009e007800688040000b
:103a5c009cfc07000000e0000a003200aa310200c2
:103a6c000000000000000000060037009e007800f7
:103a7c0068804000e30807009e00780072804000d8
:103a8c00e0080700f6090700100020000080fa008b
:103a9c00000006000c00fa0030079800410798005f
:103aac00224f98004e0090000000e00003003a0006
:103abc000000eb00000f780005003700be009000fe
:103acc004e0090000088b90000007800000f7800cc
:103adc00410220001e804000a2070700100798003a
:103aec001e0090000000e0000b0032009e009000d1
:103afc00210798002e0090004002b000200798008b
:103b0c001e029000ae4990002e019000ce00900055
:103b1c003e009000030007001e0090000080fa0099
:103b2c00000006000a00fa00000f78001107980048
:103b3c002207980063479800440798001e009000e5
:103b4c000000e00004003a00ce0090004e0090000f
:103b5c000108780003003700ae0090004e00900082
:103b6c00010878004e0090009e00780071089800c3
:103b7c004e0090009e009000011098001100200053
:103b8c004e0090007fff07000080fa000000060046
:103b9c001200fa005007980061079800720798000d
:103bac00030f98000000eb00000f7800de0090007f
:103bbc001107980001003700000000009b09070066
:103bcc001e009000e00890001e009000700890000d
:103bdc00808f5000030039000e089000e20f500057
:103bec001b003a000e099000ee0090001e009000a1
:103bfc0086020700200798001e0090001008900015
:103c0c000000e000090032001e009000720040002d
:103c1c002cfc07000000e0000a003200aa31020070
:103c2c000000000000000000060037002e0090008d
:103c3c000000e00003003200aa3102000000000086
:103c4c000000000086090700100020003d0037002e
:103c5c007e0090000000e00003003a00800907009d
:103c6c000000eb00370037001e0078000000e00079
:103c7c0004003a00660047007ffc0700100020009b
:103c8c00000f780076090700bdfa070067090700e6
:103c9c001e00900020609000e14f400003003a00ad
:103cac001e0090008040eb00216098001e009000e8
:103cbc0030609000e14f400003003a001e0090007d
:103ccc008040eb003160980065090700ee0047006a
:103cdc006600470072fc07000000e00015003a0087
:103cec001e009000160307000000e0000d003200db
:103cfc00fe0090001e00900068004000d2fb070000
:103d0c001e009000b6020700a3fa07000000e000b6
:103d1c00a9ff3a00aa3102000000000000000000d8
:103d2c00a6ff37001e009000ad0207009afa0700ac
:103d3c00a2ff37001e009000a902070096fa0700a8
:103d4c000000eb000080fa00000006001000fa00f2
:103d5c004007980051079800620798007307980075
:103d6c00ce009000110798000000eb00200798008f
:103d7c001e009000e00890001e009000700890005b
:103d8c00808f5000030039007e009000e20f50003d
:103d9c0022003a001e009000b0609000614798002d
:103dac007e019000de0090001e00900017020700bc
:103dbc006e409000e14f400010003a001e00900051
:103dcc00100890000000e000110032001e0090006e
:103ddc0072004000bbfb07000000e0000c0032004a
:103dec006e0090000000e000090032006e009000b0
:103dfc001100200001087800050037006e4090008b
:103e0c000040e800804078001e009000316098006f
:103e1c0010002000000f7800020037000000eb00bb
:103e2c00000f78001e0078000080fa0000000600e9
:103e3c000e00fa005007980061079800de00900011
:103e4c00110798000000eb00200798001e0090005e
:103e5c00e0089000310798001e009000f0089000d8
:103e6c003e009000808f5000220036001e00900013
:103e7c00b0609000014f98003e0090008000e80078
:103e8c001e009000610898000e489000e14f400021
:103e9c0010003a001e009000100890000000e00096
:103eac00110032001e0090007200400085fb0700dc
:103ebc000000e0000c0032006e0090000000e000fa
:103ecc00090032006e0090001100200001087800fb
:103edc00050037000e4890000040e8008040780054
:103eec001e0090003160980010002000000f780038
:103efc00020037000000eb00000f78001e00780075
:103f0c000080fa00000006001000fa00500798002c
:103f1c0061079800720798000000eb00000f780012
:103f2c00de0090001107980003003700000000002d
:103f3c000100370000000000bc0807001e009000c4
:103f4c00e0089000210798002e0090000000e0008f
:103f5c0016003200ee0090001e009000fe010700db
:103f6c002e0090008000e9001e009000610898006f
:103f7c001e009000400090000000e000080032009d
:103f8c001e009000680040004efb07000000e0009f
:103f9c0003003200aa310200000000000000000003
:103fac00af08070010002000410037007e00900091
:103fbc000000e00003003a00a90807000000eb0035
:103fcc003b0037001e0078000000e00004003a00bf
:103fdc0066004700a8fb070010002000000f7800c7
:103fec009f080700e6f90700900807001e009000e4
:103ffc0020609000e14f400003003a001e0090004a
:10400c008040eb00216098001e0090003060900012
:10401c00e14f400003003a001e0090008040eb008e
:10402c00316098008e080700ee00470066004700dc
:10403c009bfb07000000e00015003a001e009000fa
:10404c001f0207000000e0000d003200fe0090008f
:10405c001e00900072004000fbfa07001e0090004a
:10406c00df010700ccf907000000e000afff3a00c9
:10407c00aa3102000000000000000000aeff370073
:10408c001e009000d6010700c3f90700aaff3700f5
:10409c001e009000d2010700bff907001e0090001f
:1040ac00070207000000e000a2ff32000000eb0056
:1040bc000080fa00000006000e00fa00500798007d
:1040cc00610798000000eb00000f7800de00900004
:1040dc0011079800030037000000000001003700b2
:1040ec0000000000510807001e009000e00890003e
:1040fc00210798002e0090000000e0001300320011
:10410c002e0090008000e9001e00900061089800cd
:10411c001e009000400090000000e00008003200fb
:10412c001e00900068004000e6fa07000000e00066
:10413c0003003200aa310200000000000000000061
:10414c004708070010002000410037006e00900067
:10415c000000e00003003a00410807000000eb00fb
:10416c003b0037001e0078000000e00004003a001d
:10417c006600470040fb070010002000000f78008d
:10418c00370807007ef90700280807001e0090007a
:10419c0020609000e14f400003003a001e009000a8
:1041ac008040eb00216098001e0090003060900071
:1041bc00e14f400003003a001e0090008040eb00ed
:1041cc003160980026080700ec00470066004700a5
:1041dc0033fb07000000e00015003a001e009000c1
:1041ec00b70107000000e0000d003200ee00900067
:1041fc001e0090007200400093fa07001e00900011
:10420c007701070064f907000000e000b2ff3a00f4
:10421c00aa3102000000000000000000b1ff3700ce
:10422c001e0090006e0107005bf90700adff370020
:10423c001e0090006a01070057f907001e0090004d
:10424c009f0107000000e000a5ff32000000eb001a
:10425c000080fa00000006001200fa0060079800c7
:10426c0071079800020f98000000eb00000f780017
:10427c00ee009000110798000300370000000000ca
:10428c000100370000000000e80707001e00900046
:10429c00e0089000210798002e0090000000e0003c
:1042ac00180032001e009000b000900031079800fa
:1042bc00fe0090001e009000270107001e009000d9
:1042cc00be009000310098001e0090001008900075
:1042dc000000e000080032001e0090007200400058
:1042ec0078fa07000000e00003003200aa31020057
:1042fc000000000000000000d9070700100020009b
:10430c00410037000e0890000000e00003003a0066
:10431c00d30707000000eb003b0037001e007800bd
:10432c000000e00004003a0068004700d2fa0700e1
:10433c0010002000000f7800c907070010f90700d3
:10434c00ba0707001e00900020609000e14f40006b
:10435c0003003a001e0090008040eb0021609800a2
:10436c001e00900030609000e14f400003003a00c6
:10437c001e0090008040eb0031609800b8070700e9
:10438c00f000470068004700c5fa07000000e00095
:10439c0015003a001e009000490107000000e000e3
:1043ac000d0032008e0890001e009000720040003c
:1043bc0025fa07001e00900009010700f6f8070017
:1043cc000000e000adff3a00aa310200000000003e
:1043dc0000000000acff37001e0090000001070039
:1043ec00edf80700a8ff37001e009000fc00070046
:1043fc00e9f807001e009000310107000000e00002
:10440c00a0ff32000000eb000080fa000000060064
:10441c001000fa0050079800610798007207980086
:10442c00de009000110798000000eb0020079800b8
:10443c001e009000e0089000310798003e009000ac
:10444c000000e000250032001e009000a0609000eb
:10445c00014f9800ee0090001e009000be00070077
:10446c003e0090008000e9001e009000610898005a
:10447c000e489000e14f400010003a001e009000e2
:10448c00400090000000e000110032001e0090007f
:10449c00680040000bfa07000000e0000c0032003e
:1044ac007e0090000000e000090032007e009000c9
:1044bc001100200001087800050037000e4890001c
:1044cc000040e800804078001e00900021609800b9
:1044dc0010002000000f7800020037000000eb00f5
:1044ec00000f78001e0078000080fa000000060023
:1044fc000c00fa004007980051079800ce0090007d
:10450c00110798000000eb00200798001e00900097
:10451c00600890000000e0000c0032001e009000cb
:10452c00b000900031079800de0090001e00900053
:10453c00890007001e009000be009000310098001a
:10454c0010002000000f7800020037000000eb0084
:10455c00000f78001e0078000080fa0000000600b2
:10456c000400fa0010079800300707001e009000a6
:10457c00e0089000010f7800390707001e00780052
:10458c000080fa00000006000600fa0020079800e0
:10459c00ae009000010f7800240707001e00780081
:1045ac00f00890001e007800600890000080500019
:1045bc00100798002a0707001e0090000080fa00e0
:1045cc00000006000600fa0020079800ae009000dc
:1045dc00010f78001e007800e00890001107980089
:1045ec001e0090000080fa00000006000400fa0093
:1045fc00100798009e009000010f78001e007800b4
:10460c004a0507000080fa00000006000a00fa00c4
:10461c002007980031079800420798000000eb0033
:10462c00100798002e009000e0089000010f780011
:10463c002e009000001090000000e00040003200be
:10464c004e0090000000e00019003a002e0090008f
:10465c00801090002e009000100090000101780056
:10466c00be0090002ff507002e00900090009000e7
:10467c002e00900000109000808040002e009000d2
:10468c00110098002e009000900090002e009000d9
:10469c0020009000808f5000290039002e009000df
:1046ac00900078002e009000110098002400370034
:1046bc002e009000801090002e0090003000900092
:1046cc0001017800be00900016f507002e00900046
:1046dc00b00090002e009000001090000000ea0046
:1046ec00808040002e009000310098002e00900039
:1046fc00b00090002e00900010007800808f5000c9
:10470c00080031002e009000a00090002e009000b8
:10471c00001090000000ea00808040002e00900005
:10472c00310098004e009000e20f500004003a0057
:10473c001e0078000000e000010032001e0fe900ae
:10474c009e00e8002e009000610898001e0090006a
:10475c000080fa00000006000400fa00000f780048
:10476c00110798001e007800001090000000e00077
:10477c00190032001e007800b00090001e00780076
:10478c0000109000808040001e00780031009800de
:10479c001e007800b00090001e00780020009000f1
:1047ac00808f5000040039001e00780090007800c3
:1047bc001e007800310098001e00780080109000d8
:1047cc001e00780030009000010178008000780015
:1047dc001e009000d3f407000080fa0000000600d1
:1047ec000400fa0010079800900607001e009000c5
:1047fc00b0609000014f78000b0037001e00900055
:10480c00100890000000e0000b0032001e00900029
:10481c00720040002bf907000000e000010032009c
:10482c00d7f907001e4fe9001e4078000004e00095
:10483c00f2ff3c0001003700000000001e00900059
:10484c0080c0eb00316098008506070077060700f2
:10485c001e009000a0609000114798000d003700da
:10486c001e009000400090000000e0000d0032009f
:10487c001e0090006800400012f907000000e000e4
:10488c0001003200bef907001e4090000040e90014
:10489c00104798001e4090000004e000f0ff3c0020
:1048ac0001003700000000001e00900080c0eb00eb
:1048bc00216098006a0607000080fa0000000600dc
:1048cc000400fa0010079800580607001e0090001c
:1048dc00600890000000e00003003a001000200087
:1048ec00000f7800020037000000eb00000f78008a
:1048fc005b0607001e0078000080fa00000006002e
:10490c000600fa0020079800ae00900011079800ee
:10491c001e009000600890000000e00003003a00c8
:10492c0010002000000f7800020037000000eb00a0
:10493c00000f78001e0078000080fa0000000600ce
:10494c000400fa0010079800380607001e009000bb
:10495c00e00890001e00900070089000808f5000be
:10496c0003003a0010002000000f7800020037000e
:10497c000000eb00000f7800390607001e007800dd
:10498c000080fa00000006000600fa0020079800dc
:10499c00ae009000110798001e009000e0089000f7
:1049ac001e00900070089000808f500003003a00a9
:1049bc0010002000000f7800020037000000eb0010
:1049cc00000f78001e0078000080fa00000006003e
:1049dc000a00fa0020079800310798004207980057
:1049ec00ae0090001107980011028000f0f12f002a
:1049fc00008060000050a000100288000000000041
:104a0c00000000001e009000cdff07000000e00039
:104a1c00160032004e0090000000e0000c00320046
:104a2c001e00900068004000800078004e0090004e
:104a3c00bb02070011028000f0f12f000080600023
:104a4c001002880000000000c0ff2f003300370068
:104a5c0011028000f0f12f0000806000100288002d
:104a6c00000000000000eb002c0037001102800059
:104a7c00f0f12f00008060001002880000000000a0
:104a8c0011028000f0f12f00008060000050a000a7
:104a9c001002880000000000000000001e009000c2
:104aac00e00890001e00900070089000808f50006d
:104abc00120031000001eb00be0090001e009000bf
:104acc00d2fe070010002000000f78001e0090009e
:104adc00100890000000e0000a0032001e00900058
:104aec0072004000830307000000e0000500320064
:104afc00b0ff2f00000f7800020037000000eb0021
:104b0c00000f780011028000f0f12f00008060008f
:104b1c0010028800000000001e0078000080fa00df
:104b2c00000006000a00fa002007980031079800e0
:104b3c0042079800ae009000110798001102800007
:104b4c00f0f12f00008060000050a00010028800df
:104b5c0000000000000000001e00900060089000a3
:104b6c000000e00016003a004e0090000000e0004b
:104b7c000c0032001e009000720040008000780093
:104b8c004e0090006602070011028000f0f12f0029
:104b9c00008060001002880000000000c0ff2f00a1
:104bac004b00370011028000f0f12f0000806000f4
:104bbc0010028800000000000000eb0044003700e9
:104bcc0011028000f0f12f000080600010028800bc
:104bdc000000000011028000f0f12f000080600046
:104bec000050a0001002880000000000000000002f
:104bfc001e009000600890000000e0002c003200c5
:104c0c001e009000b00090001e009000001090005c
:104c1c00808040001e009000310098001e00900023
:104c2c00b00090001e00900020009000808f50007b
:104c3c00040039001e009000900078001e009000c7
:104c4c00310098001e009000600890008000e90080
:104c5c001e009000610898001e00900080109000cb
:104c6c001e00900030009000010178008000780058
:104c7c003e009000abf3070010002000000f7800fe
:104c8c001e009000400090000000e0000a0032007e
:104c9c001e00900068004000160307000000e000b2
:104cac0005003200b0ff2f00000f78000200370023
:104cbc000000eb00000f780011028000f0f12f00d3
:104ccc000080600010028800000000001e007800c8
:104cdc000080fa00000006000800fa001007980097
:104cec0021079800320798009e009000010f780071
:104cfc001e007800e00890001e00780070089000fc
:104d0c00808f5000120031000001eb00ae009000cb
:104d1c001e0078003dfe07003e0090000000e00001
:104d2c000b003a001e007800100890000000e00014
:104d3c00070032009e00780072804000ed020700f0
:104d4c000000e000020032001000200001003700db
:104d5c003e0090000080fa00000006000a00fa00f5
:104d6c00200798003107980042079800ae00900089
:104d7c00110798001e009000600890000000e000f1
:104d8c00310032001e009000b00090001e00900018
:104d9c0000109000808040001e00900031009800b0
:104dac001e009000b00090001e00900020009000ab
:104dbc00808f5000040039001e0090009000780095
:104dcc001e009000310098001e00900060089000ba
:104ddc008000e9001e009000610898001e00900001
:104dec00801090001e0090003000900001017800af
:104dfc00800078003e0090004af307004e009000bf
:104e0c00100078000000e0000c003a001e0090003a
:104e1c00400090000000e000080032001e009000ee
:104e2c0068004000b30207000000e00003003200fd
:104e3c004e009000110020000108780010002000a6
:104e4c00000f7800020037000000eb00000f780024
:104e5c001e0078000080fa00000006000000fa0036
:104e6c002174200062042000730520008248780021
:104e7c008348780042c7a9000080fa0000000600b1
:104e8c000000fa0021742000620420007305200049
:104e9c00824878008348780042c7a8000080fa0056
:104eac00000006000000fa0000002300203a8800f1
:104ebc004827ef007027ef007227ef007427ef00f0
:104ecc001200200080072000a1092000337420006c
:104edc008049780081497800824978000001eb0014
:104eec0060042000710520002374200080497800a4
:104efc0081497800824978000080fa0000000600a1
:104f0c000000fa00c422ef00cc22ef003000200099
:104f1c000016880030ff2f00401688006820ef0034
:104f2c006a20ef00c622ef00ce22ef002c23ef0008
:104f3c000080fa00000006000600fa001007980036
:104f4c002107980014c0b3001e019000ae01900020
:104f5c000058220001002000800f5100818f590061
:104f6c0001003e000042eb00044f7800bbff07003d
:104f7c002135800000fe2f0000806000c000b300cf
:104f8c0020358800c982a80061368000f00f2e0001
:104f9c0080806000003020000100700060368800c6
:104fac00c9a2a900b6ff070021e2a80021a2a9000e
:104fbc002182a9002162a90001118000f0cf2f00ed
:104fcc00008060000011880020e2a90020c2a90026
:104fdc0020a2a9002082a9009e40780061c0600038
:104fec000080fb00610060004300dd0001118000c7
:104ffc000130a10001007000001188000111800037
:10500c0090ff2f0000806000001188002002a90092
:10501c001e4078000004e0000d0032001e019000dc
:10502c00ae0190004218dd00ce10de008100700051
:10503c004210dd000001be0000402200410f2000a4
:10504c009af20700000078000000e9000c0037001d
:10505c001e019000ae0190004418dd00cc10de0063
:10506c00810070004410dd000001be0000402200f1
:10507c00410f20008df20700000078000000e900cd
:10508c00401188002342a8002362a90023e2a90052
:10509c0023a2a90022e2a90022c2a9009560a800bf
:1050ac009580a9002342a8000080fa0000000600a9
:1050bc000600fa00100798002107980014c0b300ee
:1050cc001e019000ae01900000582200010020004b
:1050dc00800f5100818f590001003e000042eb000f
:1050ec00044f78005dff07003135800000fe2f0073
:1050fc0000806000e000b30030358800c9c2a80011
:10510c0071368000f00f2e0080806000005020006f
:10511c000100700070368800c9e2a90058ff070032
:10512c0031e2a80031a2a9003182a9003162a900a4
:10513c0081118000f0cf2f0000806000801188006a
:10514c0030e2a90030c2a90030a2a9003082a90027
:10515c009e40780061c060000080fb006100600030
:10516c004300dd00811180000130a10001007000be
:10517c00801188008111800090ff2f00008060005a
:10518c00801188003002a9001e4078000004e00065
:10519c000d0032001e019000ae0190004218dd009f
:1051ac00ce10de00810070004210dd000001be0058
:1051bc0000402200410f20003cf207000000780064
:1051cc000000e9000c0037001e019000ae019000b9
:1051dc004418dd00cc10de00810070004410dd00ae
:1051ec000001be0000402200410f20002ff20700fa
:1051fc00000078000000e900c01188003342a800cc
:10520c003362a90033e2a90033a2a90032e2a9005b
:10521c0032c2a90097c0a80097e0a9003342a800a9
:10522c000080fa00000006000200fa00004f78002f
:10523c0000000000111180000020200000806000a0
:10524c000000e000fbff3a001e00fb00201188006c
:10525c000080fa00000006000200fa00000f78003f
:10526c0010118000620060000000e00002003200bb
:10527c002222a9000100370000000000101180005c
:10528c00610060000000e000fcff32003011800083
:10529c00804078001e007800014878000080fa00f9
:1052ac00000006000200fa00000f78000b00370027
:1052bc000000000011118000002020000080600020
:1052cc000000e000fbff3a001e0078001040780060
:1052dc000000fb00201188001e0fe8001e00780063
:1052ec00104078000004e000f1ff3a000080fa0062
:1052fc00000006000200fa00004f780000000000d9
:10530c009111800000202000008060000000e0006f
:10531c00fbff3a001e00fb00a01188000080fa0081
:10532c00000006000200fa00000f780090118000c7
:10533c00620060000000e000020032003222a9008e
:10534c000100370000000000901180006100600037
:10535c000000e000fcff3200b011800080407800bb
:10536c001e007800014878000080fa00000006005a
:10537c000200fa00000f78000b003700000000005c
:10538c009111800000202000008060000000e000ef
:10539c00fbff3a001e007800104078000000fb0074
:1053ac00a01188001e0fe8001e0078001040780045
:1053bc000004e000f1ff3a000080fa000000060053
:1053cc000000fa00b7fe0700cdfe070000202c00fd
:1053dc0011002000d8fe070000202c001100200036
:1053ec0033ff07001000200040a688000080fa0060
:1053fc00000006000a00fa00200798003107980008
:10540c0042079800c00120005601070010079800c1
:10541c001e0090000000e0003c00320010418000b3
:10542c000000e00003003a009e009000114188004b
:10543c00160107003e009000e10f500002003600fc
:10544c0010002000300798001e0090008000eb0038
:10545c00510898001e009000be0090003108980082
:10546c001e009000ce009000410898001e00900095
:10547c00ae009000010878001e0090000080e8004b
:10548c00790207001e0090006c00400076020700b5
:10549c001e0090009e009000410098001e0090009d
:1054ac009e009000110898003e009000e200100051
:1054bc001e009000610098001e009000b008900043
:1054cc0020418000808f5000030036001e009000a9
:1054dc0030089000204188001e0090000081e800f8
:1054ec001e009000300890006a00b900800078001f
:1054fc0060492100008040008200780061020700b2
:10550c0010002000000f7800020037000080eb0034
:10551c00000f78001e0078000080fa0000000600e2
:10552c000600fa001007980021079800314180000e
:10553c001e009000008f4000104180000080e800a9
:10554c00a0020700104180009e0078001100980016
:10555c00304180009e007800808f500005003100a3
:10556c00104180008080e800004180006302070049
:10557c0004003700104180008080e800f04080007b
:10558c005e0207002e0090000000e00005003200d3
:10559c00104180006c004000800078002e009000cc
:1055ac00560207000080fa00000006000200fa0014
:1055bc002500370011028000f0f12f000080600000
:1055cc000050a00010028800000000000000000045
:1055dc0020a6800030009000000f78009e0078001c
:1055ec006c8040007702070011028000f0f12f0060
:1055fc000080600010028800000000001e80e8009f
:10560c00700207001e007800b00890002041800056
:10561c00808f5000030036001e0078003008900088
:10562c00204188001e81e8001e00780030089000a0
:10563c006a00b900800078006049210000804000b9
:10564c00820078000f020700f0a580000000e00047
:10565c00d8ff3a000080fa00000006000400fa00af
:10566c00a2f4070041418000010050005041880025
:10567c0049003700304180000000e80030418800cc
:10568c00504180000000e90050418800304180000a
:10569c000000e00039003a00f1408000010f780072
:1056ac0000418000f04088009e0078000141880095
:1056bc0033003700f0408000300090003000900044
:1056cc00100798001e009000900090003041800060
:1056dc00808f50002f003e0011028000f0f12f004f
:1056ec00008060000050a000100288000000000044
:1056fc00000000001e0090000080e800310207004e
:10570c001e009000200890000000e0000300320012
:10571c001e0090006c0040002a020700110280005d
:10572c00f0f12f00008060001002880000000000e3
:10573c001e009000b008900020418000808f500027
:10574c00030036001e0090003008900020418800b5
:10575c001e0090000081e8001e00900030089000b0
:10576c006a00b90080007800604921000080400088
:10577c0082007800c3010700010037000000000020
:10578c00f0408000100078000000e000c9ff3a00f3
:10579c000100370000000000504180000000e000d4
:1057ac00b4ff3a0030418000404188000080fa008c
:1057bc00000006000200fa007cff0700a7ff0700ac
:1057cc0006003700204180000000e0002c00320071
:1057dc00204180000000e900204188002041800029
:1057ec006a00b90080007800604921000080400008
:1057fc00100078000000e000f2ff32002041800031
:10580c006a00b9008000780060492100008f4000d8
:10581c001e00780010009000900090001e00780090
:10582c00110098001e007800900090001e01780076
:10583c0064004100808f500005003a001e00780083
:10584c0010009000900090001e007800110098004d
:10585c001e0078001000900030009000104188006d
:10586c00104180001001780010418000c0089000a9
:10587c001041800002000100000000000100370010
:10588c00000000000080fa00000006000200fa0090
:10589c000000eb00000f7800070037001e007800b6
:1058ac006a00b90080007800604921000080400047
:1058bc00540107001e0fe8001e007800e10f500095
:1058cc00f6ff3600a04a21004e010700404b210094
:1058dc004c010700e04b21004a010700a04a2100bf
:1058ec00f0408800404b2100004188000080fa0005
:1058fc00000006000600fa00200798002e00900019
:10590c003000900030009000100798001e009000ae
:10591c006c004000ab0107001e0090006c004000c2
:10592c0080007800e04b2100560107001e0090001b
:10593c00b00890001041800030089000808f50001b
:10594c000300390010002000000f7800020037001f
:10595c000000eb00000f78001e0078000080fa00b9
:10596c00000006000a00fa00400798000000eb0057
:10597c002007980082f30700804180000000e000bf
:10598c0001003a009c000700b14180004e009000dd
:10599c00008060000000e00060003a004e009000c3
:1059ac000000e0000d003200a0718400ce009000d9
:1059bc0000804000400798004e009000610060009d
:1059cc00004078000004e000040032004e0090001b
:1059dc000000a1000080e800400798004e009000f5
:1059ec000000e0004d00320090418000ce0090009d
:1059fc00808f500049003e00c082200010079800a4
:105a0c0061418000010f7800040037009e0078008f
:105a1c00110798001e007800100f78001e00780007
:105a2c00900090004e009000808f500004003100d8
:105a3c001e007800100078000000e000f3ff3a0030
:105a4c00804180009e007800808f5000330032002f
:105a5c001e00900090007800a0718400008040002f
:105a6c00200798001e007800900078001e0090001f
:105a7c00010878001e007800900090004e00900005
:105a8c0080805000a071840000004000808f500086
:105a9c000e0036004e0090001e00400030079800ab
:105aac001e007800900090004e0090008080500006
:105abc003e009000110098001e007800ce0090006f
:105acc00110098003e009000820007009141800078
:105adc001e0078001000900000805000904188005b
:105aec0091418000a0418000808f50000200310065
:105afc0090418000a04188001e007800900090002a
:105b0c00b0418000810070001e00780011009800e8
:105b1c001e0078008000eb00010878001ef30700df
:105b2c002e0090000080fa00000006000600fa002b
:105b3c0020079800ae009000010f78002e00900016
:105b4c000000e0001f003200a07184000000ea0099
:105b5c001e0f40009e007800110798001e00900058
:105b6c0090009000b0418000008060000000e000d8
:105b7c00140032001e009000100078000000e000bd
:105b8c0010003a001e00900090009000b041800080
:105b9c000080ea00808060001e00900011009800d8
:105bac00f7f207001e0090009000900090418000da
:105bbc0000804000904188001e00900045000700c6
:105bcc00f5f207000080fa00000006000000fa0061
:105bdc00904180000080fa00000006000000fa00ee
:105bec00a04180000080fa00000006000000fa00ce
:105bfc000080fa00000006000800fa0000c0200037
:105c0c0010079800c0832000000f78001e00780059
:105c1c0061006000004078000004e00007003200e2
:105c2c001e0fe8001e00a1001e0090009e005000f8
:105c3c00c083200000804000100798009e00780070
:105c4c00210798002e009000604188002e28ef005c
:105c5c00ae0090001e009000008f4000a0718400e8
:105c6c001e0f10001e00a1001e007800804188004d
:105c7c00804180008000eb00110098008041800082
:105c8c008000eb0001087800ae009000310798000e
:105c9c003e0090009e0010003e0090001100980005
:105cac00814180003e009000010878003e00900089
:105cbc0010009000a04188003e0090001000900061
:105ccc009041880000002800b04188000080fa0054
:105cdc00000006000600fa0020079800c082200091
:105cec00000f7800020037001e007800100f7800bb
:105cfc001e007800900078002e009000808f5000dd
:105d0c00f9ff39009e007800110798001e007800fa
:105d1c00100090009e009000808040002e009000ab
:105d2c00808f500009003a001e007800900090000f
:105d3c002e00900010009000808040001e00780023
:105d4c00110098009e00780021079800ae0090008a
:105d5c00110798002e009000100090009e009000fb
:105d6c00808040001e00780010007800808f50006a
:105d7c0017003a001e0078009000780080418000e7
:105d8c00808f50000e0032002e009000900090008a
:105d9c001e007800100078001000900080804000f9
:105dac002e009000110098001e0078001000780062
:105dbc00900078002e009000010878000800370051
:105dcc00814180002e00900001087800040037000b
:105ddc001e007800900078002e00900001087800da
:105dec002e0090009e007800808f5000030032003f
:105dfc001e007800ae009000010878000080fa00c8
:105e0c00000006000200fa00000f78009e007800e7
:105e1c0064804000800078001e007800110098001b
:105e2c001e0078008080eb00210098009e00780016
:105e3c0064804000800078001e00780031009800db
:105e4c009e00780064804000800078001e0078007e
:105e5c00410098001e0078008000eb0001087800db
:105e6c000080fa00000006000200fa00000f780023
:105e7c001e0078008000eb00410098000080fa00c2
:105e8c00000006000600fa00100798002107980091
:105e9c001e00900090009000010f78002e009000e2
:105eac009e007800110098001e007800a000900061
:105ebc002e009000210098001e0078002000900019
:105ecc00ae009000110098001e007800ae0090000b
:105edc00210098002e0090009e0090004100980038
:105eec001e009000100078008000e8001e0090005a
:105efc00010878000080fa00000006000800fa0093
:105f0c0020079800310798003e0090009000780020
:105f1c00110798001e009000e10f400004003a00a9
:105f2c002e009000c0009000010f78000d0037008b
:105f3c002e00900064004000000f78000300370032
:105f4c001e00780090009000010f78001e00780071
:105f5c0010009000900078001e009000808f500080
:105f6c00f7ff36001e007800900090003e00900075
:105f7c00110098003e00900010009000be009000b0
:105f8c00210098003e0090009e00780021009800af
:105f9c001e007800be009000110098003e0090009a
:105fac00ae009000410098002e0090001000780088
:105fbc008000e8002e009000010878000080fa00b4
:105fcc00000006000400fa00100798001e00900064
:105fdc00c0009000010f78001e009000100090008f
:105fec009e009000a1009000210098001e009000df
:105ffc00200090009e0090009100900011009800ed
:10600c001e007800900090001e009000808f5000c1
:10601c0004003a001e009000a00090001e007800c2
:10602c00110098001e0090008000eb0041009800c9
:10603c001e007800100078008000e9001e00780037
:10604c00010878001e007800100078000080fa002b
:10605c00000006002a00fa0020179800311798005b
:10606c0042179800e4004700a2df28000f00090047
:10607c00b2187800be109000110798002e109000f6
:10608c001e019000020878002e1090000080e8009d
:10609c00201798002e1090008000eb00010878006b
:1060ac002e1090000080e800201798002e10900011
:1060bc008000eb00010878002e1090000080e800b2
:1060cc0020179800ce1090002e1090000108780038
:1060dc002e1090000080e800201798000000eb00c4
:1060ec00000f78000a0037001e0078000000400006
:1060fc0000004700a00090002e10900001087800ce
:10610c002e1090000080e800201798001e0fe80069
:10611c001e007800ef0f5000f3ff360021028000c4
:10612c002e109000010878002e1090000080e800de
:10613c002017980034c0bf008080fb002e10900008
:10614c00010878002e1090000080e80020179800bd
:10615c002e1090008000eb00010878002e109000ab
:10616c000080e800201798002e1090000080fa00a4
:10617c00000006000000fa00180007000040800034
:10618c00900778004f007800d04188003400f90067
:10619c004400f9003200f9003600f9004f0778008e
:1061ac004f06be004f05be004f04be004f03be009d
:1061bc004f02be004f01be004f00be004200f9006e
:1061cc0000000600100020000080fa00000006000d
:1061dc000000fa000080fa00000006000400fa003b
:1061ec00f07c200001002000008fbe000421ef0095
:1061fc000021ef001e0078001008880021058000a7
:10620c00f0ff28000080600000c0a000200588007e
:10621c008460a9009460a8000481a80004a1a900ce
:10622c0005e1a8000080fa00000006000000fa005a
:10623c0011028000f0f12f00008060000050a000df
:10624c00100288000000000000000000d041800017
:10625c000000e800d04188000080fa000000060031
:10626c000000fa00d04180000000e900d041880015
:10627c00d04180000000e00005003a0011028000cf
:10628c00f0f12f0000806000100288000000000078
:10629c000080fa00000006000200fa00000f7800ef
:1062ac0040db2800fffb0700a0002000bcef07002c
:1062bc00fbff37000200fa00000f780070dd2800a9
:1062cc00f8fb0700a0002000b5ef0700fbff37002c
:1062dc000000fa003afc070032c0b3008000eb006b
:1062ec0010002000ebf50700c0418800c041800081
:1062fc008001eb000001eb008000eb0024f60700ae
:10630c008002eb000002eb008001eb000208200091
:10631c008000eb002015230051ee07008002eb00fb
:10632c00340020008001eb00020820008000eb000c
:10633c00001623004aee0700eaf007000000eb000d
:10634c000080fa00000006004200f800801f780070
:10635c000002200010028800811f7800829fbe007e
:10636c00849fbe00869fbe00889fbe008a9fbe0091
:10637c008c9fbe008e1f78003600f8003200f800ab
:10638c004400f8003400f800d0418000801f7800f1
:10639c00004080000f087800a615020000000000e5
:1063ac0000408000900778004f007800d0418800b2
:1063bc003400f9004400f9003200f9003600f9000d
:1063cc004f0778004f06be004f05be004f04be00bd
:1063dc004f03be004f02be004f01be004f00be0077
:0863ec004200f9000000060068
:020000040000fa
:1063f40038080000020000000000000096140000ad
:1064040032000000000000001e0800000e00000022
:10641400000000003c1400005a00000000000000ce
:10642400000800001e000000000000003c080000fe
:10643400000c0000000000002c0800000c0000000c
:10644400000000003a080000020000000200000002
:10645400ef000000c8140000020000000200000069
:0864640001000000000000002f
:020000040000fa
:10646c000000fa00d3fc07000080fa0000000600d0
:10647c000000fa000080fa00000006000400fa0098
:10648c00000f78001107980011028000f0f12f0026
:10649c00008060000050a000100288000000000086
:0864ac0000000000ffff3700b3
:020000040000fa
:020000040001f9
:0407f800bff9000045
:020000040000fa
:020000040001f9
:0407fc007f3d00003d
:00000001FF
