:020000040000fa
:08000000020c040000000000e6
:020000040000fa
:10000800560d0000560d0000560d0000560d00005c
:10001800560d0000560d0000560d0000560d00004c
:10002800560d0000560d0000560d0000d60c0000bd
:10003800560d0000560d0000560d0000560d00002c
:10004800560d0000560d0000560d0000060d00006c
:100058001a0d0000560d0000560d0000560d000048
:10006800560d0000560d0000560d0000560d0000fc
:10007800560d0000560d0000560d0000560d0000ec
:10008800560d0000560d0000560d0000560d0000dc
:10009800560d0000560d00002e0d0000420d000008
:1000a800560d0000560d0000560d0000560d0000bc
:1000b800560d0000560d0000560d0000560d0000ac
:1000c800560d0000560d0000560d0000560d00009c
:1000d800560d0000560d0000560d0000560d00008c
:1000e800560d0000560d0000560d0000560d00007c
:1000f800560d0000560d0000560d0000560d00006c
:10010800560d0000560d0000560d0000560d00005b
:10011800560d0000560d0000560d0000560d00004b
:10012800560d0000560d0000560d0000560d00003b
:10013800560d0000560d0000560d0000560d00002b
:10014800560d0000560d0000560d0000560d00001b
:10015800560d0000560d0000560d0000560d00000b
:10016800560d0000560d0000560d0000560d0000fb
:10017800560d0000560d0000560d0000560d0000eb
:10018800560d0000560d0000560d0000560d0000db
:10019800560d0000560d0000560d0000560d0000cb
:1001a800560d0000560d0000560d0000560d0000bb
:1001b800560d0000560d0000560d0000560d0000ab
:1001c800560d0000560d0000560d0000560d00009b
:1001d800560d0000560d0000560d0000560d00008b
:1001e800560d0000560d0000560d0000560d00007b
:0801f800560d0000560d000039
:020000040000fa
:10020800560d0000560d0000560d0000560d00005a
:10021800560d0000560d0000560d0000560d00004a
:10022800560d0000560d0000560d0000d60c0000bb
:10023800560d0000560d0000560d0000560d00002a
:10024800560d0000560d0000560d0000060d00006a
:100258001a0d0000560d0000560d0000560d000046
:10026800560d0000560d0000560d0000560d0000fa
:10027800560d0000560d0000560d0000560d0000ea
:10028800560d0000560d0000560d0000560d0000da
:10029800560d0000560d00002e0d0000420d000006
:1002a800560d0000560d0000560d0000560d0000ba
:1002b800560d0000560d0000560d0000560d0000aa
:1002c800560d0000560d0000560d0000560d00009a
:1002d800560d0000560d0000560d0000560d00008a
:1002e800560d0000560d0000560d0000560d00007a
:1002f800560d0000560d0000560d0000560d00006a
:10030800560d0000560d0000560d0000560d000059
:10031800560d0000560d0000560d0000560d000049
:10032800560d0000560d0000560d0000560d000039
:10033800560d0000560d0000560d0000560d000029
:10034800560d0000560d0000560d0000560d000019
:10035800560d0000560d0000560d0000560d000009
:10036800560d0000560d0000560d0000560d0000f9
:10037800560d0000560d0000560d0000560d0000e9
:10038800560d0000560d0000560d0000560d0000d9
:10039800560d0000560d0000560d0000560d0000c9
:1003a800560d0000560d0000560d0000560d0000b9
:1003b800560d0000560d0000560d0000560d0000a9
:1003c800560d0000560d0000560d0000560d000099
:1003d800560d0000560d0000560d0000560d000089
:1003e800560d0000560d0000560d0000560d000079
:0803f800560d0000560d000037
:020000040000fa
:10180000010000000f0e22000e7f22000e01880052
:1018100000000000000020000000e0000200320094
:10182000000120002002880014000700a10007002a
:101830000000e00003003a000079220001002000cf
:10184000020037000000200001002000810f70001e
:101850000100320014000700000020000000e0003a
:10186000020032000000020000000000e826020032
:10187000000000000040da000000fe004440a90023
:10188000c00320000000e000030032000000200040
:10189000a00188004440a800000006008a1f7800cc
:1018a0008b1f7800000006009101880080047800fa
:1018b0000000eb001a003700e284440032a0b400bc
:1018c0009905ba00e284440032a0b4009906ba0037
:1018d000e284440032a0b4000006eb00476fde0053
:1018e000fd07b200636ce10003003a00ebff070064
:1018f0000000eb000a003700606ce10004003a00d1
:10190000005deb008b05e900fdff3e0004003700a1
:101910006168e100010032000086eb000b00070067
:1019200019c7ba001905ba000e04e00003003a0016
:101930000a00e000e0ff3a0000000600fe07b200e7
:101940009e0188008a047800f5ff3700395dba00ef
:101950008b05e9000c003200295dba008b05e90017
:10196000080032000c00e00003003a00e28444006a
:1019700032a0b400f5ff370019ddba008b05e9008d
:10198000faff3a008904e800e184440032a0b40080
:101990000000060000000000000000000000000041
:1019a0000000000000000000000000003600f80009
:1019b000809fbe00829fbe00849fbe00869fbe00a7
:1019c0003400f80000002000a00188000000fa00a8
:1019d0008460a900bf0307000000e000030032009c
:1019e0004027020000000000000000000080fa0014
:1019f0003400f9004f03be004f02be004f01be008d
:101a00004f00be003600f900004006003400f80028
:101a1000881f780008002000a80188004f04780083
:101a20000000fa008560a9000080fa003400f90087
:101a3000004006003400f800881f780008002000ed
:101a4000a80188004f0478000000fa008580a900f2
:101a50000080fa003400f900004006003400f8006d
:101a6000881f780008002000a80188004f04780033
:101a70000000fa0087c0a9000080fa003400f900d5
:101a8000004006003400f800881f7800080020009d
:101a9000a80188004f0478000000fa0087e0a90040
:101aa0000080fa003400f900004006000040da002f
:101ab0000000fe00000005006022b80006022000c1
:101ac0000000d0008180d2000482d2008582d20042
:101ad0000000a0000202520083825a00030031007d
:101ae0000202420083824a000000a1000603e900ce
:101af000f3ff3a000000060009003700304278008a
:101b0000b1417800834f52000400320010002000e1
:101b1000060031000080eb00000006000201e90031
:101b20000200e000f5ff3a000000eb0000000600b4
:101b30008001780002003700815978000201e90035
:0c1b40000200e000fcff3a00000006007c
:020000040000fa
:101b4c001111000022220000333300004444000035
:101b5c005555000066660000777700008888000005
:101b6c0099990000aaaa0000bbbb0000cccc0000d5
:101b7c00dddd0000eeee0000cecd0000acab0000d1
:101b8c00494400004c45000000a50000a5a500003c
:101b9c00a5a50000a5a50000a5a50000a5a5000011
:101bac00a5a50000a5a50000a5a50000a5a5000001
:081bbc00a50000000400000078
:020000040000fa
:101bc4001000fa0020079800310798004207980097
:101bd4005307980064079800750798006002200076
:101be400020a0700000f78001e0078000000e000e1
:101bf4000e0032004e00900000004000fb09070078
:101c0400800078001e007800410898001e007800cb
:101c1400400890000000e00004003a001e00780034
:101c2400640a07000000eb00000f78001e00780033
:101c34000000e000120032004e0090008000eb0033
:101c44000001eb00821f78009e0378007e03900061
:101c5400ee0290005e0290000001be00be00900003
:101c64002e0090000b0007008f87e9001e0078000b
:101c740072000700100020001007980002003700cf
:101c84000080eb00100798001e0090000080fa000e
:101c9400000006001400fa0020079800310798009d
:101ca4004207980053079800640798007507980046
:101cb400060f9800170f98004e0090000000400097
:101cc400800078001e089000400890000101780010
:101cd400510a200095ff07001e089000c0089000dc
:101ce400110798001e089000c00890004e01900053
:101cf400f0ff270000004100000040008080400009
:101d04001e089000710898003e0090000000e0005a
:101d1400190032000000eb00000f78000d003700be
:101d24003e0090001e004000904078001e08900085
:101d34001e0040007a004000014878003e009000f8
:101d44001e004000104078000004e000050032004e
:101d54001e0fe8001e007800e30f5000f0ff36006d
:101d640001003700000000001e0890008040eb00d6
:101d740051589800030037001e0890008040eb0083
:101d8400215898007e009000e30f500002003600b6
:101d940030002000700798001e089000fe0090009c
:101da400310898001e0890000080e800d00a07005f
:101db4001e0890006c004000cd0a07001e08900029
:101dc4009e089000410098007e009000e4001000fe
:101dd4001e089000610098001e0890009e08900064
:101de400110898001e0990006000b80000119800c6
:101df400111198001e0890008040eb00416098008b
:101e04006e019000ae0090001e009000330b07009e
:101e1400800078001e089000010878000e089000e9
:101e24000000e000030032000e0890009e089000bd
:101e3400010878000080fa00000006000200fa00a1
:101e4400000f78009b0b0700404080000000e80072
:101e540040408800004080000000e00007003a0095
:101e64009e0078000140880040408000e10f50004f
:101e74000d003a002a0407000b0037007040800070
:101e84000000e00008003a0000408000b008900024
:101e94001e00780030089000808f500002003e0041
:101ea4009e00780001408800b04080000000e800f7
:101eb400b04088001e007800b008900060408000a8
:101ec400808f5000030036001e0078003008900018
:101ed400604088001e81e8001e00780030089000f1
:101ee4006a00b90080007800a0432100008040000f
:101ef40082007800850a07007b0b07007040800091
:101f04000000e0000900320000408000b0089000aa
:101f14001e00780030089000808f500003003100cc
:101f24004027020000000000000000000080fa00ca
:101f3400000006000400fa00100798005d0b07007b
:101f44001e0090000000e00002003a000040800003
:101f5400010037001e009000000f78001e80e8008a
:101f6400ba0a07001e007800200890000000e00074
:101f7400030032009e0078006c804000b30a070022
:101f8400b04080000000e800b040880000408000bd
:101f94009e007800808f500008003a001e80e80000
:101fa4008000780000482100580a07003040800073
:101fb4000000e80030408800060037004040800000
:101fc4000000e900404088001e0078000804070073
:101fd40010040700440b0700704080000000e0007c
:101fe40007003200004080009e007800808f50007f
:101ff40003003a0040270200000000000000000037
:102004000080fa00000006000c00fa004007980067
:10201400510798000000eb00000f7800b0010700a2
:1020240051408000110798004e0090009000780005
:102034005e00900000804000200798004e00900051
:10204400900078001e009000808f50000c00360035
:102054004e009000900078002e009000808f500079
:1020640012003600ae0090001e009000808f5000d9
:102074000e00360010002000000f78000b0037001f
:102084004e009000900078002e009000808f500049
:1020940004003e00ae0090001e009000808f5000af
:1020a4000200360010002000000f78004e0090005f
:1020b400ae009000010878001e0078000000e000e7
:1020c40005003200ae0090001e0090000080500019
:1020d4008000eb00d5050700870107003007980052
:1020e4003e0090000000e00003003a004027020098
:1020f40000000000000000000080fa00000006005c
:102104000400fa00100798000000eb00000f7800ac
:102114001e0090000000e00006003200700107007d
:102124008000eb001e009000c0050700720107004c
:10213400000f78001e0078000000e00003003a0061
:102144004027020000000000000000000080fa00a8
:10215400000006000600fa0020079800d50a0700d0
:102164002e0090000000e00002003a0000408000d1
:10217400010037002e009000000f78001e00780048
:10218400b008900011079800d70a07001e009000bd
:102194000080fa00000006000800fa0030079800ea
:1021a4000000eb00000f78003e0090000000e0000b
:1021b40002003a0000408000010037003e00900019
:1021c400100798001e009000b008900021079800a6
:1021d4002e0090000080fa00000006000c00fa00b7
:1021e40040079800510798000000eb00000f7800aa
:1021f4005e009000e30f5000020036003000200023
:1022040050079800ab0a07004e0090000000e00061
:1022140002003a0000408000010037004e009000a8
:10222400100798001e009000b00890002107980045
:10223400ae0090005e009000808f50004800320095
:10224400de0090002e009000808f50000c003600bd
:10225400004080009e009000808f50000e003200ed
:1022640000408000b00890005e009000808f500015
:1022740009003e0010002000000f7800060037001f
:10228400004080009e009000808f500002003a00c1
:1022940010002000000f78001e009000b00890008d
:1022a400310798001e009000de009000310898006d
:1022b4001e009000600090000000e0000400350063
:1022c4005e009000e40010001e0090006100980081
:1022d4001e009000500190003e0090006a00b9007a
:1022e40080007800a043210000804000800f51004e
:1022f40015003a001e0090000080e800d309070092
:102304001e009000b008900060408000808f500054
:10231400030036001e0090003008900060408800e2
:102324001e0090000081e8001e009000300890001c
:102334006a00b90080007800a043210000804000ba
:1023440082007800710907001e0078000000e00098
:1023540003003200402702000000000000000000db
:10236400610a07000080fa00000006000400fa0079
:10237400100798004f0a07001e0090000000e000bc
:1023840002003a0000408000010037001e00900067
:10239400000f78001e80e800ac0907001e007800da
:1023a400200890000000e000030032009e00780046
:1023b4006c804000a50907001e80e80080007800ba
:1023c400a0482100510907001e00780040609000d9
:1023d400e14f500003003a001e0078008040eb00fb
:1023e40041609800400a0700704080000000e0004f
:1023f400030032002f0a0700060307003a0a070009
:10240400004080009e007800808f50000e003a004b
:10241400704080000000e000040032004027020009
:1024240000000000000000000700370051a48000f5
:1024340040408000808f500002003a000028ef00e6
:1024440001003700960107000080fa000000060032
:102454000600fa00200798000000eb00000f780047
:10246400ae009000110798001e009000d00090006c
:10247400a0482100808f50000b003a001e009000fd
:10248400a008900060472100808f500006003200b1
:102494001e009000200890000000e00002003a00b6
:1024a40010002000000f78001e0078000080fa0061
:1024b400000006000400fa00100798009e00900037
:1024c400010f7800004080009e007800808f50004b
:1024d400250032001e0078000000e00022003200d7
:1024e400f40907001e007800d9ff07000000e0008f
:1024f4001c0032001e80e800540907001e0078000a
:10250400b008900060408000808f500003003600c7
:102514001e00780030089000604088001e81e800aa
:102524001e007800300890006a00b900800078002e
:10253400a04321000080400082007800f3080700d7
:102544001e007800b0089000004080003008900021
:10255400808f500003003900402702000000000073
:1025640000000000e00907000080fa0000000600f7
:102574000800fa00300798000000eb00000f780014
:10258400be009000110798000000eb00200798009f
:102594001e009000aeff07000000e000260032009d
:1025a400e04080000000e0001e003a001e009000a1
:1025b400b00890000040800030089000808f5000e8
:1025c4000200390010002000000f78001e00900067
:1025d4000080e8001d0907001e009000b00890006c
:1025e40060408000808f5000030036001e00900081
:1025f40030089000604088001e0090000081e800d0
:102604001e009000300890006a00b9008000780035
:10261400a04321000080400082007800bb0807002e
:10262400050037001e0090006c0040008000780018
:1026340060472100b50807001e0078000080fa00fa
:10264400000006000200fa00a58120000002eb0051
:102654008001eb003207200061dc2800c0772100f4
:1026640057fd0700000f78001e007800e10f5000ae
:102674000d003a0011028000f0f12f00008060008c
:102684000050a000100288000000000000000000bc
:102694000080eb00c04088001000200070408800db
:1026a4000a28ef00550907000080fa000000060020
:1026b4000000fa0011028000f0f12f000080600099
:1026c4000050a0001002880000000000000000007c
:1026d4000e28ef00600907000080fa0000000600e1
:1026e4000000fa00e04080000000e800e0408800bc
:1026f4000080fa00000006000600fa000000eb006b
:10270400000f78000000eb0010079800690907002b
:10271400e04080000000e900e0408800e0408000e4
:102724000000e00045003a00404080000000e00066
:102734004200320021003700e0a380003000900006
:10274400000f78009e0078006c804000bf080700ee
:102754001e80e800bd0807001e007800b008900045
:1027640060408000808f5000030036001e00780017
:1027740030089000604088001e81e8001e00780048
:10278400300890006a00b90080007800a04321005e
:1027940000804000820078005c0807001e0078007a
:1027a400b00890000040800030089000808f5000f6
:1027b400020039001000200090408800b0a380007f
:1027c4000000e000dcff3a001e0078000000e0009a
:1027d400010032000f0207008140800021079800a9
:1027e4002e0090000000e0000c00320038000700ca
:1027f4000000e00002003200100020009040880039
:102804002e0090000000e900200798002e009000a0
:102814000000e000f5ff3a001028ef00904080002f
:102824000000e000050032001000200010079800ae
:102834004027020000000000000000002a090700f1
:102844001e0090000080fa00000006000200fa005a
:102854001809070051408000010f78002209070081
:102864001e0078000080fa00000006000400fa0050
:102874000000eb00000f7800514080001107980021
:102884001e0090000080fa00000006000000fa001c
:10289400404080000080fa00000006000400fa00b6
:1028a400100798001e0090000000e00002003a00ab
:1028b40000408000010037001e009000000f7800e7
:1028c4009e0078007a8040000080fa000000060034
:1028d4000a00fa000000eb00000f7800e0408000de
:1028e4000000e00062003a00504080000000e80070
:1028f400100798009e009000514088001e00900030
:102904000000e0000a003a0011408000210798000e
:102914002040800010408800ae00900021408800d4
:10292400a04080000000e800a0408800b901070032
:10293400c04080009e009000808f50003c00390011
:1029440001003700000000001040800010007800f3
:102954000000e00003003a000080eb00c040880063
:1029640033003700104080003000900030009000a9
:10297400300798003e0090009000900041079800b6
:102984009e0090004e009000808f500003003100a4
:10299400ce009000c1408800250037003e00900022
:1029a4000080e800290807003e00900020089000fd
:1029b4000000e000030032003e0090006c00400084
:1029c400220807003e009000b0089000604080009c
:1029d400808f5000030036003e00900030089000c5
:1029e400604088003e0090000081e8003e009000b6
:1029f400300890006a00b90080007800a0432100ec
:102a04000080400082007800c00707003e0090006c
:102a1400b00890000040800030089000808f500083
:102a2400c8ff390010002000000f7800c6ff3700ef
:102a340000408000300890006a00b90080007800ef
:102a4400a04321000080400010007800e10f5000f6
:102a54000200360010002000000f78008040800043
:102a64000000e00006003a004b09070004003700ac
:102a7400804080000000e80080408800460907008c
:102a8400904080000000e0000200320010002000ae
:102a9400000f78001e0078000080fa000000060095
:102aa4000600fa00e04080000000e000030032006d
:102ab4001000200090408800390037001228ef00f1
:102ac4000040800070089000100798001e009000dd
:102ad400740050001007980042012000b1dc280067
:102ae4001e00900003fc07000000e0000400320018
:102af40000408000fa0040000040800029090700df
:102b040061408000010f7800010037001e0fe900ca
:102b14001e0078006a00b90080007800a0432100fc
:102b240000804000100078000000e000f7ff320051
:102b34001e0078006a00b90080007800a0432100dc
:102b440000804000200798002e00900010009000a4
:102b5400900090002e009000110098002e0090002c
:102b6400900090002e00900064004000808f500080
:102b740005003a002e009000100090009000900094
:102b84002e009000110098002e009000100090007c
:102b940030009000004088009e007800614088006a
:102ba4000080fa00000006000400fa00000f78001c
:102bb40011079800004080006c00400080007800fd
:102bc4001e0078006f070700110020001e0090000f
:102bd400160307000080fa00000006000600fa0051
:102be400000f780011079800220798000040800029
:102bf4009e00900001f0a000610098000040800059
:102c04006c004000800078001e0078003f07070039
:102c1400110020002e009000040307000080fa0039
:102c2400000006000600fa00200798002e0090001d
:102c34003000900030009000100798001e009000b3
:102c44006c00400081070700e04080000000e000c5
:102c540016003a001e0090000080e8007b07070081
:102c64001e009000b008900060408000808f5000eb
:102c7400030036001e009000300890006040880079
:102c84001e0090000081e8001e00900030089000b3
:102c94006a00b90080007800a04321000080400051
:102ca4008200780019070700050037001e00900015
:102cb4006c00400080007800604721001307070083
:102cc4001e009000b0089000004080003008900082
:102cd400808f50000500360010002000000f78009f
:102ce4001000200090408800020037000000eb0034
:102cf400000f78001e0078000080fa000000060033
:102d04000600fa0010079800210798002e00900092
:102d14008000780001f0a0001e00900001087800f7
:102d24001e00900030009000000f78001e009000fc
:102d3400460707001e80e800440707001e007800cd
:102d4400b008900060408000808f5000030036007f
:102d54001e00780030089000604088001e81e80062
:102d64001e007800300890006a00b90080007800e6
:102d7400a04321000080400082007800e3060700a1
:102d84001e007800b00890000040800030089000d9
:102d9400808f500002003600100020009040880010
:102da4000080fa00000006000200fa00000f78001c
:102db400c0070700a14080001e00780001087800c9
:102dc400514080001e00780011009800c6070700db
:102dd4000080fa00000006000200fa00000f7800ec
:102de400a14080001e007800010878005140800056
:102df4001e007800110098000080fa000000060010
:102e04000a00fa003007980041079800a907070054
:102e140051408000110798003e009000100090007f
:102e24009e00900000805000200798004e00900003
:102e340010007800e10f400003003a000000eb00ae
:102e4400000f7800220037003e00900090007800c8
:102e5400a0408000808f5000080032003e009000a7
:102e6400900090001e009000808f500003003e00f0
:102e740010002000000f7800150037004e0090006d
:102e8400900078002e009000808f50000b003600d8
:102e94004e009000900078002e009000808050003a
:102ea4004e009000010878003e009000caff070021
:102eb4000000eb00000f7800050037004e00900082
:102ec4008000eb000108780010002000000f78005b
:102ed400850707001e0078000080fa000000060045
:102ee4000000fa0010002000904088000080fa00e2
:102ef400000006000200fa00000f78002600070018
:102f0400d0a18000e10f50000300360040270200ea
:102f140000000000000000001b080700f7ff370056
:102f24000200fa000000eb00000f780007003700f1
:102f34001e0078006a00b90080007800a0432100d8
:102f440000804000510607001e0fe8001e007800b4
:102f5400e30f5000f6ff3600204621004b06070021
:102f6400c0462100490607006047210047060700c4
:102f74000048210045060700a04821004306070039
:102f84002046210010408800c046210020408800cf
:102f94000080fa00000006000200fa000f0037006b
:102fa4004407070030a4800030009000000f780030
:102fb4001e80e800a5060700404080000000e900ec
:102fc40040408800304080000000e9003040880024
:102fd400450707001e007800050007003040800008
:102fe4000000e000eeff3a000080fa000000060056
:102ff4000200fa00000f78001e00780040089000dc
:103004006c0507001e0078006a0507000080fa00be
:10301400000006000200fa00104080001000780052
:103024000000e00003003a000080eb00c04088008c
:1030340007003700104080003000900030009000fe
:10304400000f78001e00780010009000c040880037
:103054000080fa00000006000200fa000040800030
:10306400e0009000010f78000040800001408000e3
:10307400b1089000e4801000610098001e00780000
:103084000080fa00000006000800fa0020079800fb
:103094003107980007070700004080009010900057
:1030a40000109000e00f5000e08f58000c003a0030
:1030b4000040800011c0b300416098003e009000c1
:1030c4000000e00006003200110020003e009000e5
:1030d400d6010700402702000000000000000000a5
:1030e40001070700f306070000408000001190006c
:1030f40090119000028fbe001e00be00e00f500031
:10310400e08f58000f0032002e0090000000e00015
:1031140005003200024080006000b80000119800f1
:103124001111980007003700024080000082eb0074
:103134008082eb003e004200ae804a0000119800fd
:1031440011119800004080008040eb00416098001d
:10315400e50607001e00be000080fa00000006001d
:103164000e00fa0010079800210798003207980013
:10317400430798005407980065079800cd06070098
:103184000040800040609000e24f50002200320076
:103194000440800004119000941190001e009000df
:1031a400ae0090000080ea008180ea00820278008c
:1031b40003017800800178000100780083826200b6
:1031c400000061008000eb00c000dd000000200072
:1031d4000001be006128b800000171008181710006
:1031e40002129800131298000040800011c0b3002e
:1031f400416098006e0090000000e000060032007c
:10320400110020006e009000880107004027020092
:103214000000000000000000b3060700a506070038
:103224005e0090000000e0000500320000408000d5
:1032340090109000001090005e0190000089be0084
:103244000040800040609000e24f500003003200d4
:103254000000eb00000f78001800370004408000e5
:1032640004119000941190003e009000ce00900054
:103274000080ea008180ea0082027800030178007d
:103284008001780001007800838262000000610000
:103294008000eb00c000dd00000020000001be0043
:1032a4006128b80000017100818171000212980048
:1032b4001312980010002000000f780000408000d6
:1032c4008040eb0041609800870607001e007800ec
:1032d4000080fa00000006001000fa003007980091
:1032e40042079800530798006107980074079800f4
:1032f40010002000000f7800be0090001107980015
:103304006c0607007e0090000000e000050032001b
:103314001e00900090109000001090007e0190001c
:103324000089be001e009000406190004247980052
:103334001e00900021c0b300416098006e00900010
:10334400e20f500017003200e20f500005003e006b
:103354000000e0002e003200e10f500006003200b1
:103364002c003700e30f500017003200e40f500028
:103374001b003200270037001e009000001190004f
:10338400901190004e009000de009000000071004b
:10339400818071001e0190000011980011119800a5
:1033a4001c0037001e009000901090000010900048
:1033b40061004000e08048001e0190000011980068
:1033c40011119800130037001e0090004e01900068
:1033d400de01900002109800131098000d003700d1
:1033e4004e409000e24f5000060032001e00900054
:1033f4004e019000de019000021098001310980016
:10340400040037000000eb00000f780001003700d3
:10341400000000004e409000e14f50001e003a00b2
:103424001e0090000080e800880507001e00900040
:10343400b008900060408000808f50000300360088
:103444001e00900030089000604088001e0090002c
:103454000081e8001e009000300890006a00b90066
:1034640080007800a04321000080400082007800a2
:10347400260507001e009000b00890000040800060
:1034840030089000808f500003003600402702006f
:103494000000000000000000130607001e00780072
:1034a4000080fa00000006001400fa0040079800ab
:1034b400520798006307980071079800040f98005a
:1034c400150f980010002000000f7800ce00900027
:1034d400110798000000eb00200798000e089000e8
:1034e4000000e000050032001e00900090109000e3
:1034f400001090000e0990000089be001e0090008c
:1035040040619000624798001e00900021c0b30003
:10351400416098007e009000e20f500017003200d6
:10352400e20f500005003e000000e0002e003200d3
:10353400e10f5000060032002c003700e30f50006a
:1035440017003200e40f50001b0032002700370040
:103554001e00900000119000901190005e009000f9
:10356400ee00900000007100818071001e01900047
:1035740000119800111198001c0037001e009000e3
:10358400901090000010900061004000e08048001e
:103594001e019000001198001111980013003700cb
:1035a4001e0090005e019000ee0190000210980051
:1035b400131098000d0037006e409000e24f500049
:1035c400060032001e0090005e019000ee019000a3
:1035d4000210980013109800040037000000eb005c
:1035e400000f780001003700000000006e409000da
:1035f400e14f50002c003a00e04080000000e00061
:1036040016003a001e0090000080e8000f05070035
:103614001e009000b008900060408000808f500031
:10362400030036001e0090003008900060408800bf
:103634001e0090000081e8001e00900030089000f9
:103644006a00b90080007800a04321000080400097
:1036540082007800ad040700050037001e009000ca
:103664006c0040008000780060472100a704070038
:103674001e009000b00890000040800030089000c8
:10368400808f5000080036001e0890000000e00003
:10369400030032001e089000110020000108780089
:1036a40010002000904088001e0078000080fa007e
:1036b400000006000a00fa0030079800410798004d
:1036c400be009000010f78000000eb001007980086
:1036d4001e007800c0609000414798001e007800ea
:1036e40021c0b300416098001e0078009010900043
:1036f4000010900061004000e08048001e01780046
:1037040000119800111198004e409000e14f5000b4
:103714002a003a00e04080000000e00014003a0073
:103724001e80e800c90407001e007800b00890005d
:1037340060408000808f5000030036001e00780037
:1037440030089000604088001e81e8001e00780068
:10375400300890006a00b90080007800a04321007e
:1037640000804000820078006804070005003700ec
:103774009e0078006c804000800078006047210043
:10378400620407001e007800b0089000004080002a
:1037940030089000808f5000080036004e009000e2
:1037a4000000e000030032004e00900011002000f1
:1037b4000108780010002000904088000080fa0082
:1037c400000006000600fa00200798002e00900072
:1037d4000000e00002003a000040800001003700d1
:1037e4002e00900010079800320507001e0090007c
:1037f40040609000e24f500006003a001e00900026
:103804008040eb004160980010002000000f780019
:10381400020037000000eb00000f780032050700bb
:103824001e0078000080fa00000006000800fa007c
:10383400200798003107980051408000010f78005c
:10384400004080000080e800800407002e00900003
:10385400e10f400009003a003e0090000000e00043
:1038640006003200004080000080e80080007800fc
:10387400a048210025040700180037002e009000fe
:103884001e00400010079800004080009e00900039
:10389400110098001e0090009e0f5000050031009a
:1038a400004080008080e80020408000350407004c
:1038b4000a003700004080008080e800104080004b
:1038c40030040700c04080009e009000808f5000ac
:1038d400020031009e009000c14088000080fa0080
:1038e400000006000000fa00217420006204200099
:1038f40073052000824878008348780042c7a900f5
:103904000080fa00000006000000fa002174200084
:103914006204200073052000824878008348780000
:1039240042c7a8000080fa00000006000000fa0068
:1039340000002300203a88004827ef007027ef009a
:103944007227ef007427ef00120020008007200088
:10395400a10920003374200080497800814978004f
:10396400824978000001eb0060042000710520000a
:1039740023742000804978008149780082497800c6
:103984000080fa00000006000000fa00c422ef00e4
:10399400cc22ef00300020000016880030ff2f00fa
:1039a400401688006820ef006a20ef00c622ef006e
:1039b400ce22ef002c23ef000080fa000000060066
:1039c4000600fa00100798002107980014c0b300fd
:1039d4001e019000ae01900000582200010020005a
:1039e400800f5100818f590001003e000042eb001e
:1039f400044f7800bbff07002135800000fe2f0034
:103a040000806000c000b30020358800c982a8008f
:103a140061368000f00f2e008080600000302000ae
:103a24000100700060368800c9a2a900b6ff070033
:103a340021e2a80021a2a9002182a9002162a900f3
:103a440001118000f0cf2f00008060000011880079
:103a540020e2a90020c2a90020a2a9002082a90076
:103a64009e40780061c060000080fb00610060003f
:103a74004300dd00011180000130a100010070004d
:103a8400001188000111800090ff2f000080600069
:103a9400001188002002a9001e4078000004e00004
:103aa4000d0032001e019000ae0190004218dd00ae
:103ab400ce10de00810070004210dd000001be0067
:103ac40000402200410f2000faf7070000007800b0
:103ad4000000e9000c0037001e019000ae019000c8
:103ae4004418dd00cc10de00810070004410dd00bd
:103af4000001be0000402200410f2000edf7070046
:103b0400000078000000e900401188002342a8006a
:103b14002362a90023e2a90023a2a90022e2a900aa
:103b240022c2a9009560a8009580a9002342a8009c
:103b34000080fa00000006000600fa001007980052
:103b44002107980014c0b3001e019000ae0190003c
:103b54000058220001002000800f5100818f59007d
:103b640001003e000042eb00044f78005dff0700b7
:103b74003135800000fe2f0000806000e000b300bb
:103b840030358800c9c2a80071368000f00f2e00bd
:103b940080806000005020000100700070368800b2
:103ba400c9e2a90058ff070031e2a80031a2a90028
:103bb4003182a9003162a90081118000f0cf2f0069
:103bc400008060008011880030e2a90030c2a900a2
:103bd40030a2a9003082a9009e40780061c0600034
:103be4000080fb00610060004300dd008111800063
:103bf4000130a10001007000801188008111800053
:103c040090ff2f0000806000801188003002a9001e
:103c14001e4078000004e0000d0032001e019000f8
:103c2400ae0190004218dd00ce10de00810070006d
:103c34004210dd000001be0000402200410f2000c0
:103c44009cf70700000078000000e9000c00370032
:103c54001e019000ae0190004418dd00cc10de007f
:103c6400810070004410dd000001be00004022000d
:103c7400410f20008ff70700000078000000e900e2
:103c8400c01188003342a8003362a90033e2a900be
:103c940033a2a90032e2a90032c2a90097c0a80049
:103ca40097e0a9003342a8000080fa000000060053
:103cb4000200fa00004f780000000000111180009b
:103cc40000202000008060000000e000fbff3a00bc
:103cd4001e00fb00201188000080fa00000006008e
:103ce4000200fa00000f78001011800062006000ea
:103cf4000000e000020032002222a9000100370087
:103d04000000000010118000610060000000e0006d
:103d1400fcff320030118000804078001e007800e3
:103d2400014878000080fa00000006000200fa0052
:103d3400000f78000b003700000000001111800014
:103d440000202000008060000000e000fbff3a003b
:103d54001e007800104078000000fb00201188004d
:103d64001e0fe8001e007800104078000004e000f8
:103d7400f1ff3a000080fa00000006000200fa0099
:103d8400004f780000000000911180000020200006
:103d9400008060000000e000fbff3a001e00fb0012
:103da400a01188000080fa00000006000200fa005a
:103db400000f780090118000620060000000e000b5
:103dc400020032003222a900010037000000000086
:103dd40090118000610060000000e000fcff3200f0
:103de400b0118000804078001e00780001487800ff
:103df4000080fa00000006000200fa00000f7800bc
:103e04000b0037000000000091118000002020000a
:103e1400008060000000e000fbff3a001e00780014
:103e2400104078000000fb00a01188001e0fe8007d
:103e34001e007800104078000004e000f1ff3a0012
:103e44000080fa00000006000000fa00b7fe070038
:103e5400cdfe070000202c0011002000d8fe070032
:103e640000202c001100200033ff07001000200068
:103e740030a688000080fa00000006000a00fa005c
:103e8400200798003107980042079800c0012000dd
:103e940056010700100798001e0090000000e00083
:103ea4003c003200104180000000e00003003a00b2
:103eb4009e00900011418800160107003e0090000a
:103ec400e10f500002003600100020003007980077
:103ed4001e0090008000eb00510898001e00900026
:103ee400be009000310898001e009000ce009000a3
:103ef400410898001e009000ae0090000108780070
:103f04001e0090000080e800790207001e00900067
:103f14006c004000760207001e0090009e00900096
:103f2400410098001e0090009e0090001108980027
:103f34003e009000e20010001e0090006100980016
:103f44001e009000b008900020418000808f500037
:103f5400030036001e0090003008900020418800c5
:103f64001e0090000081e8001e00900030089000c0
:103f74006a00b900800078004049210000804000b8
:103f8400820078006102070010002000000f780012
:103f9400020037000080eb00000f78001e0078005c
:103fa4000080fa00000006000600fa0010079800de
:103fb40021079800314180001e009000008f4000ce
:103fc400104180000080e800a0020700104180003a
:103fd4009e00780011009800304180009e00780017
:103fe400808f500005003100104180008080e8007f
:103ff4000041800063020700040037001041800084
:104004008080e800f04080005e0207002e009000ef
:104014000000e00005003200104180006c00400008
:10402400800078002e009000560207000080fa00fd
:10403400000006000200fa0025003700110280008b
:10404400f0f12f00008060000050a00010028800f2
:10405400000000000000000010a680003000900066
:10406400000f78009e0078006c8040007702070003
:1040740011028000f0f12f0000806000100288001f
:10408400000000001e80e800700207001e00780097
:10409400b008900020418000808f5000030036005b
:1040a4001e00780030089000204188001e81e8003e
:1040b4001e007800300890006a00b9008000780083
:1040c4004049210000804000820078000f02070070
:1040d400e0a580000000e000d8ff3a000080fa006c
:1040e400000006000400fa00d8f9070041418000ee
:1040f40001005000504188004900370030418000e1
:104104000000e80030418800504180000000e900d0
:1041140050418800304180000000e00039003a003e
:10412400f1408000010f780000418000f0408800d9
:104134009e0078000141880033003700f040800081
:104144003000900030009000100798001e0090008e
:104154009000900030418000808f50002f003e007e
:1041640011028000f0f12f00008060000050a000d8
:104174001002880000000000000000001e009000f3
:104184000080e800310207001e0090002008900023
:104194000000e000030032001e0090006c004000ac
:1041a4002a02070011028000f0f12f000080600055
:1041b40010028800000000001e009000b00890006b
:1041c40020418000808f5000030036001e009000c4
:1041d40030089000204188001e0090000081e80013
:1041e4001e009000300890006a00b900800078003a
:1041f400404921000080400082007800c30107008c
:104204000100370000000000f0408000100078003a
:104214000000e000c9ff3a00010037000000000080
:10422400504180000000e000b4ff3a0030418000bb
:10423400404188000080fa00000006000200fa00f5
:104244007cff0700a7ff070006003700204180001d
:104254000000e0002c003200204180000000e90052
:1042640020418800204180006a00b9008000780065
:104274004049210000804000100078000000e00068
:10428400f2ff3200204180006a00b900800078000b
:1042940040492100008f40001e007800100090006b
:1042a400900090001e007800110098001e00780015
:1042b400900090001e01780064004100808f50003f
:1042c40005003a001e007800100090009000900055
:1042d4001e007800110098001e0078001000900065
:1042e40030009000104188001041800010017800d7
:1042f40010418000c00890001041800002000100bd
:104304000000000001003700000000000080fa00f7
:10431400000006000200fa000000eb00000f780025
:10432400070037001e0078006a00b900800078009a
:104334004049210000804000540107001e0fe8009e
:104344001e007800e10f5000f6ff3600804a21007d
:104354004e010700204b21004c010700c04b2100f7
:104364004a010700804a2100f0408800204b2100c8
:10437400004188000080fa00000006000600fa00f0
:10438400200798002e00900030009000300090002c
:10439400100798001e0090006c004000ab0107005d
:1043a4001e0090006c00400080007800c04b21008b
:1043b400560107001e009000b008900010418000d4
:1043c40030089000808f5000030039001000200056
:1043d400000f7800020037000000eb00000f7800a7
:1043e4001e0078000080fa00000006000a00fa00af
:1043f400400798000000eb0020079800b8f8070079
:10440400804180000000e00001003a009c000700a9
:10441400b14180004e009000008060000000e00088
:1044240060003a004e0090000000e0000d003200f1
:10443400006f8400ce009000008040004007980088
:104444004e00900061006000004078000004e0002d
:10445400040032004e0090000000a1000080e8003b
:10446400400798004e0090000000e0004d0032002c
:1044740090418000ce009000808f500049003e00a3
:10448400c08220001007980061418000010f78006d
:10449400040037009e007800110798001e00780081
:1044a400100f78001e007800900090004e009000dd
:1044b400808f5000040031001e0078001000780046
:1044c4000000e000f3ff3a00804180009e00780085
:1044d400808f5000330032001e009000900078005e
:1044e400006f840000804000200798001e007800c0
:1044f400900078001e009000010878001e007800eb
:10450400900090004e00900080805000006f840066
:1045140000004000808f50000e0036004e009000d6
:104524001e004000300798001e00780090009000a4
:104534004e009000808050003e00900011009800d2
:104544001e007800ce009000110098003e009000fc
:1045540082000700914180001e0078001000900046
:10456400008050009041880091418000a04180006b
:10457400808f50000200310090418000a0418800eb
:104584001e00780090009000b0418000810070000f
:104594001e007800110098001e0078008000eb00d7
:1045a4000108780054f807002e0090000080fa00fb
:1045b400000006000600fa0020079800ae009000f4
:1045c400010f78002e0090000000e0001f00320070
:1045d400006f84000000ea001e0f40009e00780077
:1045e400110798001e00900090009000b0418000d8
:1045f400008060000000e000140032001e00900003
:10460400100078000000e00010003a001e00900046
:1046140090009000b04180000080ea00808060003b
:104624001e009000110098002df807001e00900055
:1046340090009000904180000080400090418800ec
:104644001e009000450007002bf807000080fa00c8
:10465400000006000000fa00904180000080fa008b
:10466400000006000000fa00a04180000080fa006b
:10467400000006000000fa000080fa0000000600b6
:104684000800fa0000c0200010079800a083200052
:10469400000f78001e007800610060000040780080
:1046a4000004e000070032001e0fe8001e00a10015
:1046b4001e0090009e005000a08320000080400057
:1046c400100798009e007800210798002e009000a3
:1046d400604188002e28ef00ae0090001e0090007c
:1046e400008f4000006f84001e0f10001e00a10008
:1046f4001e00780080418800804180008000eb002b
:1047040011009800804180008000eb0001087800cf
:10471400ae009000310798003e0090009e0010000b
:104724003e00900011009800814180003e009000fe
:10473400010878003e00900010009000a04188001d
:104744003e00900010009000904188000000280076
:10475400b04188000080fa00000006000600fa005c
:1047640020079800c0822000000f78000200370064
:104774001e007800100f78001e007800900078006a
:104784002e009000808f5000f9ff39009e007800c1
:10479400110798001e007800100090009e00900001
:1047a400808040002e009000808f500009003a0065
:1047b4001e007800900090002e00900010009000e1
:1047c400808040001e007800110098009e00780050
:1047d40021079800ae009000110798002e00900069
:1047e400100090009e009000808040001e00780021
:1047f40010007800808f500017003a001e007800e7
:104804009000780080418000808f50000e003200bc
:104814002e009000900090001e0078001000780098
:1048240010009000808040002e009000110098003d
:104834001e00780010007800900078002e00900090
:104844000108780008003700814180002e009000a4
:1048540001087800040037001e00780090007800fa
:104864002e009000010878002e0090009e00780031
:10487400808f5000030032001e007800ae009000cc
:10488400010878000080fa00000006000200fa0027
:10489400000f78009e00780064804000800078005b
:1048a4001e007800110098001e0078008080eb0044
:1048b400210098009e007800648040008000780009
:1048c4001e007800310098009e007800648040004b
:1048d400800078001e007800410098001e007800d7
:1048e4008000eb00010878000080fa000000060058
:1048f4000200fa00000f78001e0078008000eb0030
:10490400410098000080fa00000006000600fa004a
:1049140010079800210798001e0090009000900056
:10492400010f78002e0090009e007800110098007e
:104934001e007800a00090002e0090002100980036
:104944001e00780020009000ae0090001100980036
:104954001e007800ae009000210098002e00900008
:104964009e009000410098001e0090001000780006
:104974008000e8001e009000010878000080fa0022
:10498400000006000800fa0020079800310798008c
:104994003e00900090007800110798001e009000df
:1049a400e10f400004003a002e009000c000900087
:1049b400010f78000d0037002e00900064004000c5
:1049c400000f7800030037001e007800900090006c
:1049d400010f78001e00780010009000900078000d
:1049e4001e009000808f5000f7ff36001e007800f4
:1049f400900090003e009000110098003e0090004e
:104a040010009000be009000210098003e0090002d
:104a14009e007800210098001e007800be009000df
:104a2400110098003e009000ae00900041009800f4
:104a34002e009000100078008000e8002e00900006
:104a4400010878000080fa00000006000400fa0063
:104a5400100798001e009000c0009000010f78001d
:104a64001e009000100090009e009000a100900095
:104a7400210098001e009000200090009e009000ed
:104a840091009000110098001e00780090009000a2
:104a94001e009000808f500004003a001e00900019
:104aa400a00090001e007800110098001e009000e5
:104ab4008000eb00410098001e0078001000780090
:104ac4008000e9001e007800010878001e007800cc
:104ad400100078000080fa00000006002a00fa00a6
:104ae400201798003117980042179800e4004700f7
:104af40062da28000f000900b2187800be10900096
:104b0400110798002e1090001e01900002087800f2
:104b14002e1090000080e800201798002e109000be
:104b24008000eb00010878002e1090000080e8005f
:104b3400201798002e1090008000eb0001087800e8
:104b44002e1090000080e80020179800ce109000ee
:104b54002e109000010878002e1090000080e800cc
:104b6400201798000000eb00000f78000a003700bf
:104b74001e0078000000400000004700a0009000e4
:104b84002e109000010878002e1090000080e8009c
:104b9400201798001e0fe8001e007800ef0f500049
:104ba400f3ff3600210280002e10900001087800e7
:104bb4002e1090000080e8002017980034c0bf0039
:104bc4008080fb002e109000010878002e109000c9
:104bd4000080e800201798002e1090008000eb0061
:104be400010878002e1090000080e800201798003b
:104bf4002e1090000080fa00000006000000fa0069
:104c04001800070000408000900778004f007800eb
:104c1400c04188003400f9004400f9003200f90072
:104c24003600f9004f0778004f06be004f05be005e
:104c34004f04be004f03be004f02be004f01be0032
:104c44004f00be004200f9000000060010002000e2
:104c54000080fa00000006000000fa000080fa005c
:104c6400000006000400fa00f07c2000010020008f
:104c7400008fbe000421ef000021ef001e00780029
:104c84001008880021058000f0ff280000806000e3
:104c940000c0a000200588008460a9009460a800da
:104ca4000481a80004a1a90005e1a8000080fa007d
:104cb400000006000000fa0011028000f0f12f004d
:104cc400008060000050a000100288000000000076
:104cd40000000000c04180000000e800c0418800de
:104ce4000080fa00000006000000fa00c0418000c5
:104cf4000000e900c0418800c04180000000e000dd
:104d040005003a0011028000f0f12f0000806000dd
:104d140010028800000000000080fa000000060075
:104d24000200fa00000f7800201680006400600082
:104d340000f0a7000000ea000000e9004f00de00d8
:104d4400004078000080fb00610060004200dd004c
:104d5400211680000120a1000100700020168800a7
:104d64001e007800e6f40700efff37002600fa0083
:104d7400201798000000eb00000f7800ae109000a0
:104d840011079800601680006800600000f0a7001a
:104d94000000ea000000e9004f00de000040780057
:104da4000080fb00610060004300dd0061168000ac
:104db4000130a10001007000601688001e00900000
:104dc40010007800cef40700eeff37000200fa006e
:104dd4001dfc0700c482a800201680004400de00e9
:104de400614060000080fb00610060004200dd0063
:104df400211680000120a100010070002016880007
:104e0400cc62a800601680004300de0061406000b0
:104e14000080fb00610060004200dd00611680003c
:104e24000120a10001007000601688008002eb00e0
:104e34000002eb00830c2000020820008000eb003d
:104e4400206922005ef3070040012000000f780073
:104e54008002eb000002eb008e01780002082000c3
:104e64008000eb00806b220055f30700f5f5070086
:104e74000000eb000080fa00000006004200f80089
:104e8400801f78000002200010028800811f780033
:104e9400829fbe00849fbe00869fbe00889fbe0086
:104ea4008a9fbe008c9fbe008e1f78003600f800db
:104eb4003200f8004400f8003400f800c0418000db
:104ec400801f7800004080000f087800521502000f
:104ed4000000000000408000900778004f00780038
:104ee400c04188003400f9004400f9003200f900a0
:104ef4003600f9004f0778004f06be004f05be008c
:104f04004f04be004f03be004f02be004f01be005f
:0c4f14004f00be004200f9000000060043
:020000040000fa
:104f20009414000032000000000000001e08000081
:104f30000e000000000000003a1400005a000000bb
:104f400000000000000800001e000000000000003b
:104f50003a080000000c0000000000002c080000cf
:104f60000c000000000000003808000002000000f3
:104f700002000000ef000000c61400000200000064
:0c4f800002000000010000000000000022
:020000040000fa
:104f8c000000fa00abfc07000080fa0000000600ed
:104f9c000000fa000080fa00000006000400fa008d
:104fac00000f78001107980011028000f0f12f001b
:104fbc00008060000050a00010028800000000007b
:084fcc0000000000ffff3700a8
:020000040000fa
:020000040001f9
:0407f800bff9000045
:020000040000fa
:020000040001f9
:0407fc007f3d00003d
:00000001FF
